:10D800000A00E336BDFB80BDEB8ED59C39CE005CB3
:10D81000BDEEFFC67FE700BDE67BC680BDEA2F0CEC
:10D82000D79C8DE026FCDA9C8D3F861EBDECFCC1AA
:10D83000FF26E9C67FBDEA2F0CD79C8DC727FC5376
:10D84000D49C8D25861EBDECFC174824FD26E6BD24
:10D85000FB8084038B0397B7BDEA246D9826F75DA0
:10D860002B37C101273E5420373696098D023239B5
:10D87000DF9A37979E8604979C86FF582408969EC9
:10D88000484848488A0F58240484F09B9EA7000803
:10D890007A009C26E433DE9A39C1C0270758CA8033
:10D8A0008DC720B2C88036BDFB8081103224A720EE
:10D8B0009EA005B0FF50A002CED8BE7EEAC4BDF344
:10D8C000AB5BFBFEF2F0304203BA01035847DB2B9F
:10D8D0005AF603F75235C101C02F5AF60002B1FFC4
:10D8E0001600755AE0105AFCE101021600B0015B07
:10D8F000FCE038EC8FE891C95AFCEA00CEBAFF7A16
:10D900008FCE5AFB42FBF94CE0F3E04C498BE0BD73
:10D91000EB2380941400B0B452045A680215004DF1
:10D92000F60196C40FC1032402C6034537C620245E
:10D9300000B0402600B0C072B1FF5BFCE100F044D3
:10D94000335A5BFCE100E4250057EB23B04C150093
:10D95000B00214005380150003966097E9D6D0B644
:10D9600001949858BDF3ABFB55F8E05BFAFAF3432A
:10D97000FCFF0FE000FD02E1021046CA00346162C4
:10D98000636455F8205AFCD80004115FC3005A683C
:10D990001C5BFB5FFD01D7029035310A294A5AFC16
:10D9A000D90017FA48CED9D7BDEAC4800D190C1892
:10D9B0008687880918041101102357E35557E3643B
:10D9C0005BFDE00205532856E59756E3C10439484C
:10D9D000CED9FCBDEAC402BDF3AB52E053FF538085
:10D9E0004496D65AFBFBFCE000FCE20042EE57FBFB
:10D9F000305AFEF2F0C0F7C200FA8FE0BDF3AB522E
:10DA0000227A1227765AFDE401031214765AFDE4B5
:10DA1000000212295B27EA10A9148FE5BDF3AB338E
:10DA200008090E04BDE6FEBDFB30C6104F97EFBDE2
:10DA3000F3024CBDF302BDF3AB284329425AF02157
:10DA40005AF583195BF580062C01280080022C0012
:10DA5000400A0B5AFCE10202B1FF618FE05BF50264
:10DA60001C1903290355F8704ABDE7056F00BDEB8B
:10DA7000A17F5A682A725AFB5E51FA04391C025C73
:10DA8000DA2C1A02903B5AFBFD01D75F029F40102F
:10DA90005F432B5B15031115055B16031116060377
:10DAA0005AFBF0F1125A4F115B170956E4715AF004
:10DAB0000656E524401D2B314753C05E1703432A09
:10DAC000035BFAF603FBFAF602F347F10910474845
:10DAD000CEDAD7BDEAC402BDF3AB52D0290E284E30
:10DAE00075226F227C227F752270752271227D2221
:10DAF0007EC171745BFCE17B085BF73BDF280E8F16
:10DB0000DDB10126018FEC5205432B31EA942F55EC
:10DB1000F8D0290D284DC00C5BF102C0C0722F0E49
:10DB2000B0FF5BFCE000F6310A84219FDA5A6F02F5
:10DB3000294D55F8D09F980348CEE5C3BDEAC45B94
:10DB4000562911565110C0059D67420CC009140199
:10DB5000E474150174B0FF5BFCE000F20348CEE50D
:10DB6000B6BDEAC45B570411578FD9C002400913F0
:10DB70009D3F034309035BFB54560B80055BFB553C
:10DB800057045A0A01EF40092BC0029D245BFAFAA0
:10DB9000F3420AF34F3148CE012EBDF77F5206E71C
:10DBA0001066C140721F0BB1FF5AFDE120F6280A32
:10DBB0002F4A73B1FF5BFCE100F6294A56E4571087
:10DBC000C34E114656E5170396CCBDF3AB5AFCD4B1
:10DBD00000065BFCE0000EF6107090035CFA214634
:10DBE00086FF9758021068529256E457538004CE2D
:10DBF000013ABDF77F966097EA4FD6CC8D3A5A2608
:10DC0000FB97CDC692D7AACEDD32BDEA78CEDF5CD7
:10DC1000BDEAC4BDF3ABCB0031EABB01932053286E
:10DC2000932A53205BFDEBE0F1F904869297AACE8C
:10DC3000DC68BDEA787EF8D23736CE00354848BD7C
:10DC4000EEFFDF9A5858CE0035BDEF4DBDEC86167D
:10DC500008DF9CDE9ABDEC8611260708DF9ADE9C61
:10DC600020EA323324011739C620CE019BBDEF5381
:10DC7000970C960C97585ABDF3AB52925AFB69FC1D
:10DC8000E1000C1007E16111079F54615CDC72290F
:10DC90004A55F8B0310A4FBDEBDB869297AACEDD2C
:10DCA00061BDEA784B960C8B99199758970C5AFCE2
:10DCB000E0000E1107E153201007E09F2253208F50
:10DCC000E3529632F8EA55F89055F8B0106B457C5F
:10DCD00000C9536010424C860197AACEF9ABBDEA49
:10DCE00078CC287FBCFF5AFE0101F84F4F97D6BD74
:10DCF000F8A496EA9760BDEBA14496D05AFC00E0E8
:10DD00001C7F9021BCFF5BFBFCE003FDEC30F211BB
:10DD1000E96B4AD6CDBDF9CB7F00C98ED1534011F6
:10DD200007310A8EB3C0015AF82C02C000A627A6FC
:10DD30003302BDE600C640CE00484F3691CD2705E0
:10DD4000960BBDD87008080808324C810426ECBD3B
:10DD5000EA2F045425DF20DFBDF3ABC80056E517DA
:10DD600003CEDD58BDEAC4BDF3AB8007785AF82C6A
:10DD7000FB5350765AF82CF45BF810F731458FF1CD
:10DD8000430B5201451684FC725AF937E0FAB02869
:10DD90005BF8E112451654545AFBE0FA68E1074873
:10DDA000CEDE85BDEAC4B0D859FAFAF8E0F8F9E059
:10DDB00001F8F9E002DE371A04B0371400724B366E
:10DDC0008037164444BDF1EE4C8A80BDF1A78AC06D
:10DDD00036CB291501400E0C5285448B4AC10E5B8F
:10DDE0006802915A16004B97EE32BDF1C73696EE97
:10DDF00072B1FF5BFCE100EC15004F32D61D2B0326
:10DE0000BDF1A78B9BBDEB235B682D913FB0AF1499
:10DE10000053285BFAF605FAF3FEF2F8C0F3520C51
:10DE20001052C006A040C008A03C1015C0039A8143
:10DE300053284632BDF15B035AFB4AFCD601335BE3
:10DE4000FAF606F60706C006A01C800B5BFAF60879
:10DE5000F609D9C008A00FC0165A4B02C0281400FA
:10DE6000104A124B8FC68D014CCEDEDDBDEAC47E5A
:10DE7000F1A75BFAFAFAF606F607F608F609ADC05E
:10DE800006AFE38FCEBDF3AB52C01400B001140057
:10DE900048F6019AC40F584BD79ACB1637D69ACB6F
:10DEA0000D615BE033453644441400F86146D7EE1B
:10DEB00016325BE023150144335A5AFCE1000D454C
:10DEC00037D6EE5AFD05E1D9B1FF8FD515004B3697
:10DED00044448B51BDEB2332B0FF150003BDF3ABBF
:10DEE0005205715AFEF2F080F95AF101E604C611AA
:10DEF0008AC0BDF2088B4ABDF17E8B76BDF1A7804A
:10DF000036BDF3AB2400752500B0365AFAFD88E023
:10DF10006F2704BDF1EEBDEA2F05BDF27CBDEA2FEF
:10DF200005BDF27CBDEA2F055A26C5BDF3AB5A6F7D
:10DF300008498B8ABDF1838BB645BDF1A7035AFB17
:10DF4000FCD500F10631EE457C00EF0249D6EF2703
:10DF5000015AD7EF5BFCE10002310E02BDF3AB5278
:10DF6000B6284D46860297F04E86B697AA8640CED2
:10DF7000DF7BBDEA785330B1018FEDCEDFCB97EE7A
:10DF80008D32084D2BFA96F097B796EEBDEA248CA9
:10DF9000DFFF26EA7EEA67CEDFFE97EE8D16096D7B
:10DFA000002BF996F097B796EEBDEA248CDFCA26CF
:10DFB000E97EEA67A600DF9E36843F9BEEC5012618
:10DFC00005BDF1832003BDF17E32392E2F308E8FB7
:10DFD000BCBF31BD3E3233B48A0B3536B79B9F8808
:10DFE00009B818B919BA9A0D3B1C9D10971E8C11CF
:10DFF0001516A024A125A2A627A812A313A91428A8
:10E000002500F4B2A5251020000000000003030540
:10E010000003300100000101030430010401020487
:10E02000000945180545000104010100000116061C
:10E0300002000003150304150001000401000001A3
:10E0400000020100000100020200001D002E03E199
:10E05000A4E262E1C8050D17171717101112002E60
:10E0600000060504010302E79E0002000900041AED
:10E070001402053830000102000000088000000092
:10E08000000000000000000000000001034077775E
:10E09000410000080C008000000000000000003972
:10E0A000003900204C201E20213900390039002081
:10E0B00011201DE34BE34BE340E0D0D959DA1C7E3D
:10E0C000EFF77EDBC8CEE1452003CEE1267EEAC431
:10E0D00037D60E271ACE00E0C60FBDF894D709D761
:10E0E0000DBDF3AB3408090E0AFBC80294290433B2
:10E0F0003937C674D702D7AACEE74FBDEA78D61D06
:10E10000C5012704CA02D71D33BDE7056F0037D606
:10E1100009C002250F3684F8979A485A2B029B9A19
:10E1200033C4071B3339BDF3AB105E31AE7FC00A79
:10E1300056DF3E318A7856DF4C75B0FF5BFCE0005D
:10E14000EF115EED03BDF3AB11C68A0B900379ECC2
:10E1500003520556DF3E5A420C290D284D106FA080
:10E160000E294D116F8DE5CEE19E8D127EEA67C6B8
:10E1700008860597AACEE167BDEA78CEE198A600A9
:10E18000DF9EBDF18DBDEA2F04DF9EBDF192088CAC
:10E19000E1A426EA5A26E4390E0B0D1C1D1E1A199D
:10E1A000180A0F2E2F37383B3C3F2F3B080910131E
:10E1B000181A1C1E20222426003F0A0B0A29083F99
:10E1C0002F3F10111417272922063BA0042FA1046A
:10E1D00039A0043822403AE22EFFE236FF869E350F
:10E1E000AA043EA04033200134A2102DCF9622CFA6
:10E1F000F825E228FFCF8A29CFCF26E247FFE24069
:10E20000FF233030CFAF20CFBC21E23BFFE24CFFF9
:10E2100021063DE253FF9F002EBE002CE25AFF2351
:10E22000703122033831003C44A63690303FA78637
:10E230002F2F2FD03C3FA54180323FCF4112283FA6
:10E24000EF802C40FF233FCF4127273FCF802B403B
:10E25000FF323FCF802C4144243FCFB02C40D92AFD
:10E26000293FD3E30291E325F1E2F0F2E2ECF2E29E
:10E27000ECF2E2EC71E800F1E33291D90291D902BB
:10E2800093DB7D93DB7697E5D492E5E993DB3893D6
:10E29000DB5DDCE550DCE550DCE550F5E34C91DB83
:10E2A0007391DB7393DA82F4DAA095DD8095DD80DB
:10E2B00095DD8091DB7395DD8095DD8095DD809126
:10E2C000DB7395DD8095DD8095DD8091DABE95DD8F
:10E2D0008095DD8095DD8091DB73DEE405DEE4056D
:10E2E000DCE40593E79288D800D1E302E05FF7A26F
:10E2F00056DD255AFBFAF1FD03E0FAF3F168555CAF
:10E30000FB9248CEE316BDEAC45AF025E857FBDD80
:10E310005AF015314A03BDF3AB55F8A052A610517F
:10E3200053A011510357FBE931EA58FA68F36BDC4B
:10E33000C10357EF9D03E95BFA68F36902310A03F1
:10E34000BDF3AB5B700431CE5314043931601065FA
:10E3500053805E13034F37D666C4070C5624034C14
:10E3600020F9333937D66320F0DF9A17BDE67BA654
:10E3700098DE9A4D395AFDE0E878AFE85A4E095ACE
:10E38000FD01E06E111FC9025AFD02E065C90111CD
:10E39000E49B5F55F86042095A4E265AFCD70103A8
:10E3A00056D9CF04C6038DC12611CE005CBDEF4DFA
:10E3B0006F00BDF91B94E99A6097605A2AE8BDF393
:10E3C000AB5A682E5143AF8D5BFDE3E00251401123
:10E3D000978A0B5A649F5AFAFDD700F35F145AFCD0
:10E3E000E4000F10A9175B4602180B5AFCE4010267
:10E3F000101402CE0048C61086FFBDF840BDF919C2
:10E4000094609760395AFAFAF366F8E0F34F039F85
:10E41000B0035BF006C80290FE81405BFB644E03D4
:10E4200090F50390285AFAFCD701F35F16B3019FC9
:10E43000905BFDE4020390390340052B5BF8100369
:10E440009143037FAF0F5180B8FF90A603AF06AF93
:10E45000135BFDE002B902106455F82011A994275E
:10E46000715A67FC45D604505031AEE950015180D5
:10E4700002104F9FE2725AFEF2F050F948CE01327C
:10E48000BDF77F57FB3051945AFCE90302B90113E1
:10E490001B5BFDE90202131F35EA6162636455F8F4
:10E4A000C0190511C0C4C84C04BDE3F3860391CD67
:10E4B000270ECED80DC661D7AABDEA78BDEA2F04D3
:10E4C0004A2AEB860597F04FC601CEDF7BBDEAC432
:10E4D000CEE53EBDEAC4BDEA2FA0C604D7F05FCEAC
:10E4E000DF97BDEAC496098B12BDECFCBDFB30BDC5
:10E4F000F3AB58FA68FD03ECE47010E6675BFBF1E0
:10E50000F004C802800D5AFBF364FB684E029014BD
:10E51000401D2B31465370AE3C5AFDE0E8D411E665
:10E52000E74F8E9D284DC108280D72312A290D72A2
:10E53000F3B1FF5BFCE100F05A6F02294D02BDF31D
:10E54000AB290DC190722F0DB1FF5BFCE100F6030A
:10E550005AFBFB68FB66F3F8E042295B640BADF500
:10E560005BFDE0E80453308FF59EE29E544496CA6A
:10E570005BFBF0FA65FDE00009457A00CA10425CD9
:10E58000F9AB9001037F55F8704F96D627097F00AD
:10E59000D6CEF8DDBDEAC41165106631455360C2C0
:10E5A00000ADB25BFCE00304C8028E74ADB65AFD48
:10E5B000E002E8116602BDF3AB5A6817524055F805
:10E5C000408008BDF3AB521055F810B0FE17005351
:10E5D000C0150003521355F8105BF4E01614004008
:10E5E0000B13422A5340F88FE855F8405AFAF40DBD
:10E5F000F34220430A5340034C840391CD27F93959
:10E60000BDE3F3867FBDF8A4CE005C96CDBDEEFFE2
:10E610006F0039110D48CE0136BDF77F5BFEF2F079
:10E620005003BD01035255048DD67F00E3BDFB802E
:10E630008B00191684F097E2448B03BDE10E97ED31
:10E64000C40FC1022402CB06D7E1174848488B0407
:10E65000BDE10E97EB178DA097E58D1F6C98D6093D
:10E66000C10225068D928D136C9897E6C10325068D
:10E670008D868D076C9897E75F2010364848CE004E
:10E6800048BDEEFF32398613BDECFC8D62BDEA2F2A
:10E690000E0D59C13F26EF860E53C41F8D51BDEAA2
:10E6A0002F074A26F48609BDEC0596ED85F8270666
:10E6B000BDEC1DBDECAC96EBBDEC1DBDECAC8D42D4
:10E6C000BDEA2F304F97E097E497E897ECBDE3F36E
:10E6D000BDF3AB5AFA64F34E0C4D4FBDF8A496E966
:10E6E0009760BDEBA15BFCED000103BDFF8F3836E9
:10E6F00096E58D1A96E68D1696E78D1232398D05C0
:10E700006F007EEBA13696CDCE005C7EE68137367B
:10E71000CEEB9DBDEEFFA600C50826054394602004
:10E72000029A60976032BDE67BDF9A8604CE00E0F5
:10E7300036A60008DF9C5925028AF05925028A0F67
:10E74000DE9AA70008DF9ADE9C324A26E33339BD01
:10E75000F3AB55F87047BDE6FE5F4F53585AFA6465
:10E76000F34E1C048880C8014736847F8D97A7002C
:10E7700037BDF91943946097608D8733BDEA2F0345
:10E7800032368401113226E05D26D9BDF3AB531831
:10E790008FCB57D8B8432B5B280306112803BDF352
:10E7A000AB5B700253E011F042CE1256DACF4DCE81
:10E7B000E7F9BDEAC48608BDDE66C0762F848F9077
:10E7C00011224C225B225F226373B0FF5BFCE000EE
:10E7D000EB55FF0555F8D04AC601CEDF5CBDEAC453
:10E7E00053FF53E055F8B0BEFF5BFCEE00BD5AFC92
:10E7F000D20101FC56DB0B8FADBDF3AB995303E4A3
:10E800000F8EF10DC60ACE21008604A701867FA7D0
:10E8100000DF9A9C9A2625DE9A6F0132A70032A764
:10E82000018C210027026F0008085A2713C5012612
:10E83000E8969A48841F8A20979A20DB7EFF2B0B4C
:10E84000CE13FF356F00098C0FFF26F8BDEF22B6FF
:10E85000E05597B5CE1100DF96CE1118DF98CE01A6
:10E860007DBDEF53BDEF631B81572703BDEF7DCE09
:10E87000016EBDEF53975ABDFE1F6F006F018115EA
:10E880002606CEFEACBDEAC4814527E081352603CD
:10E89000BDEF6FBDF72C7A0061BDF89A973B0EFE75
:10E8A000E0B3AD00CEFA34BDEAC47EE9FCCE00ADE3
:10E8B000DFB3DFB1FEE0B5AD000F96957F00950E9A
:10E8C00097AC96CB27037EE946B628012A06CEFCF4
:10E8D00023BDEAC4CE0000A68143A4712703BDEE88
:10E8E00061A681A4792703BDEEBB088C000826E74A
:10E8F000D6D6271996ACDED4BDEEFFDFD48C0EFF42
:10E900002B0B5FD7D4D7D5CE0126BDF77FCE110014
:10E910009C962732A60090AC2226DFA8A60197A5D8
:10E920007F00A016575757D7A1BDEB8ED7A2DEA008
:10E93000A66197A4BDEE04DEA82407BDEF0F20D08A
:10E94000A700080820CADEAD270DA60290AC24015E
:10E950004FA702EE0020F196B690AC2211CE000037
:10E96000C608A610A830A710085A26F696B597B67E
:10E9700096942618CE11189C982711A600E601E758
:10E9800000089C9826F709DF98BDEB4796C12755EC
:10E9900096BA85102709F62102C420275F200E961B
:10E9A000BE90AC97BE96BD820097BD244F867FBDBA
:10E9B000EDA096BA2B1C7A00B8271CD6C12B0BDE13
:10E9C000BFDFBD96B9BDED9E20328A8097BADEBF0B
:10E9D000DFBBBDEDA72025D6C6270A96C7BDED53E0
:10E9E0007F00C620177F00C1CE11278608084A2B5A
:10E9F0000BE60027F86A008A08BDEBFECE00ADEEFC
:10EA00000026037EE8ADA60226F5DFB1DFB3C60817
:10EA1000A60336085A26F9A60436A60336A606E645
:10EA200007EE0839979CDF9A96B730EE00200ADF90
:10EA30009A979C30EE00A60008DF9EDEB1A70296F2
:10EA40009EA70B969FA70CE70F969CA70E969AA7DA
:10EA500010969BA7113131C60832A70A095A26F928
:10EA6000DEB18E13F72098CE00ADDF9CEE00278C30
:10EA70009CB126F68D5620EADF9A0DDEAF2744368C
:10EA8000A60097AFA60197B0DF9CDEB3A600979EC5
:10EA9000A601979F969CA700969DA701EE00DFB365
:10EAA000969EA700969FA701969AA70B969BA70CE8
:10EAB00096AAA70D96A6A71096A7A71132A70EE7AC
:10EAC0000F6F023936860697AA3220AC36A6009719
:10EAD0009AA601979B96AFA70096B0A701DFAF9CBF
:10EAE000B32604DEB1DFB3DE9C969AA700969BA7FF
:10EAF0000132398D0B25038DD30C398DF624FC3969
:10EB000037D79ACE00ADDF9CDEAD0D271416E80D89
:10EB100053D49AD19A2706DF9CEE0020ED9CB127B2
:10EB2000F633393637DF9ADE988C111827110D8CA1
:10EB300011282706A70008DF980C3332DE9A39D651
:10EB40009426F18D0220F23716C4E0271AC1E0277F
:10EB50000AD7948D1CDF91D79320028D14250C0FBA
:10EB6000EA00E7000E33398D0825F4530FE4002046
:10EB7000F1841F810F220BCE220081072302080897
:10EB8000200C8010CEF122BDF48EC6080D393684DB
:10EB9000075F0D594A2AFC323940048008100120D1
:10EBA00002C6408D2B260CDECEE6005C2705CEEBA0
:10EBB000998D11C6088D192616DECEE602C1F02405
:10EBC0000ECEEB9D96CDBDEEFFA6009A6097603904
:10EBD00096CDCE005CBDEEFFE50039D6CA263D736A
:10EBE00000CAD6D027367A00D0263136B6E05FBDCF
:10EBF000F15BB6E060BDF15B323936172003368435
:10EC000007BDECFC3236377A00D7DFD8BDE0A38DE4
:10EC1000CA8D0A8D8CBDECACDED8333239DECEEE37
:10EC200000DFDEDECEC604D7D6D7A097A25FD7A37B
:10EC3000D7A116C40726275CD79ED6A25454548D5C
:10EC4000459B9E8D3A5A26F9D6A12726A703097A15
:10EC500000A0272A8D307F00A11B8D2320EA5A2691
:10EC600006C610D79E20D38D1DA7037A00A0095A8F
:10EC700020C3D6A32706811024028BF0A7033919DD
:10EC800024037C00A139A6034C27074A81F02505FF
:10EC90008B107C00A339363716C407CE1130095AC1
:10ECA0002AFC444444AB00A700333239CE00DE8D49
:10ECB00033D7DEDECE8D2D860497DFCE0183BDEF08
:10ECC0005311221A91DE2316DFAA860490DF4848EA
:10ECD000CE0152BDEEFFBDF77FDEAABDF6BF7A00C2
:10ECE000DF26DB39A600E6018D048D071B162A02FC
:10ECF000CB103948484848545454543937C6018DCC
:10ED0000023339DFAA3637D6C1271C16481BFEE06E
:10ED100053BDEEFFA6024C2602EE00A600D6BAC5F1
:10ED20004026088D1D25043332202A4D2A6BD6C675
:10ED30002706D6C58D0C256197C5333297C7D7C630
:10ED400020593637840FC40F1133322605C52026CB
:10ED5000010D39DFAA3637D7B816867F8D4217974F
:10ED6000C2481BFEE053BDEEFFA60281FF2719E655
:10ED700000C47FD7BAE601D7BE7F00BDDEBDDFBFCE
:10ED8000C640D7C18D182011EE00C680D7C1EA0059
:10ED9000D7BA08DFBFDFBB8D0E3332DEAA3997B991
:10EDA000BDE0A1B7210039DEBBA60016C4C02721F3
:10EDB0002B12843F97C308A60097C496BA84EF9796
:10EDC000BA0820E57F00C3847F26EE96BA8A102019
:10EDD000EE8DCB08DFBBA600813F260696BA847F66
:10EDE00097BADEC3DFBD3936B6E04D91A52312C513
:10EDF0004026057D00C82609C52026067D00C927B6
:10EE0000010D3239BDEEF7E60096A495A22706C59E
:10EE100008272D2004C51027278DCC25234FC5405A
:10EE200027028A0497AA96A5EE01C5072602EE02DC
:10EE30005D2A05DFA6CEF3CBBDE09FBDEA7825694C
:10EE4000DEA096A2A861A761DEA0D6A25317E4694E
:10EE5000E76916E471E77116A479A779E481E7817F
:10EE600039DFA0E661D7A497A38D2D25288D3C8D91
:10EE70006A271D9BACDE968C111827EDA70096A57E
:10EE8000A7010808DF96DEA0A6819AA2A78120D953
:10EE9000BDEE0420D4DEA0394F0DD6A3270C499532
:10EEA000A327FB97A298A397A30C3996A14848489B
:10EEB000D6A25625034C20FA97A53997A3DFA08D3B
:10EEC000D725D28DE6CE11009C9627F3A101260707
:10EED0008D3DBDEE4820E8080820ED8D1AA600847F
:10EEE00007270848CEE0678D162002EE0196A4940D
:10EEF000A2270108A6003996A516481BFEE0513648
:10EF0000DFA69BA797A724037C00A6DEA63239DFE5
:10EF1000A6DE960909DF96A600E601DEA6A700E7B1
:10EF20000139F6E04BCE11A8DFAFDF9C969D8B1226
:10EF3000A7018600999CA7005A2704EE0020EBE762
:10EF400000E701D7ADD7AECE00ADDFB33936178DB0
:10EF5000AE323937A600E6010808C40F48484848D1
:10EF60001B3339368DED16323936178D423239CE94
:10EF700000662003CE01006FFF0926FB398DF5CE18
:10EF8000017DDF9ACEE003C6188D59C601B6210077
:10EF90002A015C8D3B8D06CEFCA37EEAC44FBDFBEF
:10EFA00024CE01818DAD16BDECF3CE01668DBA364F
:10EFB000A70144444444A7000808323936A6000893
:10EFC000DF9CDE9AA70008DF9ADE9C5A26EF3239D2
:10EFD000F701AECE01AFDF9A5817481BCEE015BD42
:10EFE000EEFFC60636A60008DF9CDE9A8DC1DF9ACA
:10EFF000DE9C5A26F0323986FFD6895625317C00B0
:10F000008BCE2400A700E6036F03A702E703968CCC
:10F01000482605978B97894C978CA702A102260F4B
:10F02000DE8AA6201653E410A4281B43B72400DE72
:10F030008AD689C407262F86FFB72802D689F728E3
:10F0400000266A7C00959660978D965C978E965EFA
:10F05000978FD65A79008E2402D65B965879008F06
:10F0600024439659203FD7905A2704C003260D7990
:10F07000008D5679008D56FA21022005F62102C432
:10F080003FF7210286FFB728029689B72800A638E5
:10F0900079008E2402A648E64079008F2402E650CB
:10F0A00076009025225454545484F02020965D9785
:10F0B0008E965F978FD65A79008E2402D65B96582B
:10F0C00079008F2402965948484848C40F1BB72836
:10F0D0000296894C97894625238601B73002CE00D7
:10F0E00000A661B8300016A469AA71A771E7695338
:10F0F000E471EA79E7790878300224E59694270DDF
:10F100007A00942608DE91A6009893A7003B7F3EE4
:10F11000C03EFF3CFF34FF3CFF3CFF3CFF3C003C5B
:10F12000FF3C240324013003300122012803210382
:10F13000210122030010003000280020DF9ECE00B5
:10F1400010378D5837EA00E700DF9CD69DC1183391
:10F15000240553E420E72033DE9E39DF9ECE0010E5
:10F16000378D393753E40020DEDF9ECE003020D1CA
:10F17000DF9ECE0010378D24E800E70020D9CE00B6
:10F180002020BECE002020D8CE002020E8CE0028AF
:10F1900020AFCE002820C9CE002820D936444444D0
:10F1A000BDEEFF327EEB8E8D711743A4008D07BD3F
:10F1B000F25524F5205DA700DF9C969D811824065A
:10F1C0001743A420A720398D5117A800A700BDF22E
:10F1D0005524F6203E8D4F263ABDF264250827F9C6
:10F1E0001743A400A7008D6DEA00E70020258D2AB3
:10F1F00027F68D61251D20F88D2027EC8D5724FAE8
:10F20000DE9E96A0D6A1209F8D1017AA008DA78DF7
:10F210004424F796A0D6A1DE9E39BDF22C96A2BD5D
:10F22000F19C17A400398D0496A320F3DF9E97A0CC
:10F23000D7A1FEE04F1658C47FBDEF4DEE00DFA210
:10F24000CEF134494949488407BDEEFFEE00D6A30C
:10F25000D0A2D79A395824025908969A8001979AD1
:10F2600017A400395424F3560920EF8DB926068DD2
:10F27000F324FA209E53E400E70020978D9CDF9C46
:10F28000D79B97A48DCF25048D1A20F6DE9CD69BA4
:10F290008D1220388D90DF9CD79B97A48DC625ECCE
:10F2A0008D0220F6361743A4007D00A427011BA77A
:10F2B000003239BDF22626068DAA251027FA17A896
:10F2C00000A700BDF2642504EA00E7007EF213BD4A
:10F2D000F21A2707BDF25524F920F10C20EEBDF2F9
:10F2E0001A26F8BDF25524F920E2CE0061200DCE99
:10F2F00000302008CE00282003CE0010BDF19CE590
:10F300000039843FBDF21A97AA1743A4189AAAA7F6
:10F3100018BDF25524F120B4EFF3D3F3F4F436F42E
:10F3200042F44FF4A1F540F544F548F558F562F57F
:10F330006BF578F57DF587F587F3DBF3B5F3AFEA89
:10F3400067F3E2F3EAF3EFF208F1A7F1EEF1F8F276
:10F350006BF294F27CF1C7F13CF15BF170F169F171
:10F360007EF183F188EC96EC05EBFEF4AAF4BFF491
:10F37000CAF4D2F4EFF4F6F4FDF527F5CDF5CDF5AA
:10F38000CDF5CDF54FF5A4F5BCF566F653F65AF478
:10F3900095F636F63BF647F64EF661F666F670F6EB
:10F3A0006BF672F677F67CF67FF6869700D7013219
:10F3B00097D13297D2BDE0A9BDF49516545454C4E8
:10F3C0001ECEF319BDEF4DEE006E00DFD19700D7D2
:10F3D0000120E2CEF339BDF48E6E00DED109DFD11B
:10F3E00020D3DED19600D6016E00BDF6A520C6BDA5
:10F3F000F6D520C116C40FC008251D58CEF347BD51
:10F40000EF4DEE00165858C480BDF49536847F1B2E
:10F41000AD00324D2BF3209DCEF357168403BDF47F
:10F420008EC50426035F20E18D6B16BDF518AD0077
:10F430005D2BF57EF3B516C40FC00824BECEF35F76
:10F4400020D916C40F8D4EBDEB235A26F820E48434
:10F450000F2608BDF4EABDEBFA20D88104240CCEB7
:10F46000F363BDF48E8D2EAD0020C816C002CE1100
:10F47000308D22A700085A26F8867EA70086F3A7BB
:10F480000186CDA7029600D6017E1130840F48BDBB
:10F49000EEFFEE0039DF9ADED1A60008DFD1DE9A5A
:10F4A00039CEF36B16BDF48C6E008DE9168D69971D
:10F4B0009E54545454178D609B9E8D4D7EF3B58D94
:10F4C000D4168D545454545420F08DC9DEB1A70D78
:10F4D00020EA8DC197B7DED19600D601BDEA247E21
:10F4E000F3CB8D06D79A979B20B48DA91620A68DB5
:10F4F000F9BDEAF320C68DF2BDEAFB20BF8DE3968D
:10F50000D23696D136DFD120B3DF9AC40FD79D7F94
:10F51000009CDE9CA7002086DF9A840F979D7F00C9
:10F520009CDE9CA60020EF8DB996D23696D13696F9
:10F5300000D601AD0097003297D13297D27EF3CF3B
:10F540008DD62090840F208C8D44DFD17EF3B5BD05
:10F55000F4E29600D6016E008D34D6D237D6D1377C
:10F5600020E88D2A20C3BDF4E220DF168DAA979CE7
:10F570008D589B9C8D9320D4168D4F20F7840F16A9
:10F580008D48BDED0320C5841FBDECFC20BE840F5B
:10F59000850827028AF0168D319BD2979BD9D1D747
:10F5A0009ADE9A398D0AEA00E70096A82BF6201712
:10F5B0008D1897A8843FCE00617EF19C8DF253E4B4
:10F5C00000E70096A82BF57EF3B57EF495378D28DD
:10F5D000BDF692331B36C5022605BDF4E220128D1E
:10F5E000E9C6FF8180C9009BD2D9D1979BD79ADE0B
:10F5F0009A324624D27EF5058DD081D0253C81F00B
:10F60000241381E025037EF518CE0193840F48BDB5
:10F61000EEFF7EEF5381F32513368DDC16D79A3239
:10F6200081F9250836378DD0979A3332CEF38BBDCA
:10F63000F48C969A6E008D5A880139BDF2F9261E17
:10F64000BDF2EF26192010BDF2DE25122009BDF211
:10F65000CF20F796C8260786803996C927F9868174
:10F6600039BDF2F420DDBDF2EA20D88D1E949A391E
:10F670001B398D179A9A391127E420DB1120CBBD55
:10F68000EB0024DA20D1D79A949A3936178D039754
:10F690009A324D2BF5BDF2F927BD814024C0BDF251
:10F6A000EF26B420B936B6018E840F270B462526E7
:10F6B000B6E056BDEBFE3239DFDCCE0112200C364F
:10F6C000B60190462510DFDCCE0116BDF77FBDE008
:10F6D000A78601202C36DFDACE01A9BDEF5391D0E9
:10F6E0002318BDE0A5B6E05FBDF13CB6E060BDF11A
:10F6F0003C7C00D0CE0122BDF77FDEDA3239DFDC80
:10F7000036378D452422BDEF6309091B1924028673
:10F7100099BDEFAFD15A260EC60ED7AACEF75FBD60
:10F72000EA782402975A8D04DEDC203036BDF74992
:10F7300086EF2502860FBDEB23B6E061BDF15BBD10
:10F74000EF632703BDF13C32393637CE01ABBDEF55
:10F7500063CE016E5D0D2704BDFE1F11333239CE1D
:10F76000016EBDEF63D15A2713965A8B0119975A30
:10F77000FEE0B7112704AD0020E5AD007EEA673654
:10F78000860120013637DF9ABDEF6337BDEF631B7B
:10F79000191632890019DE9ABDEFAFBDEF69DE9A06
:10F7A00020BA90037EEA67520E532004438B06482A
:10F7B0001658CE0102BDEF4DBDF77FCE01AFBDEEB5
:10F7C000FFBDEF638D6ECE01628D448D42CE01B9D7
:10F7D000BDEF63112533CE01B5BDEF638D568D3678
:10F7E000979ACE0164BDEF69CE01B7BDEF63CE013C
:10F7F00062BDEF538D3E8D1E4D27028D2C9B9A19B5
:10F80000CE010EBDF7847EF6FEB6E05E7EECFCBD5A
:10F81000FE1F1B7EEFAFD79D270D1686998B011912
:10F82000D09D24F9DB9D391739CE0000FF0164FF1C
:10F830000162394236175F4D275E8B99195C20F7BC
:10F84000A700085A26FA39FEE0B9AD00BDF9948D3B
:10F85000498D258D037EF8D2BDE0AD7C00CCD6CCA1
:10F860008D4BCEE057BDEF4DA600BDECFC5858CEF9
:10F870000038BDEF4D6F03394F97D697D097CD978E
:10F88000C99760C608BDEAFB4A97CC86F19758C66F
:10F890000CCE001C364F8DA8323986FFC610CE0024
:10F8A000388D9D4F975C975D975E975F3936378DA2
:10F8B0000B8D15DE9AC6068DDB333239861ACE11D2
:10F8C00026BDEEFF5A2AFA39DF9ACEE077C6147EBB
:10F8D000EFBC8D5FD6CD8D7AFEE0BBAD00BDEA2FCB
:10F8E000058D3643946097608D3CDEB18607A70D89
:10F8F000CE005CBDEF4DA6008A7FA700BDEA2F05B4
:10F90000BDE0ABA6008480A700BDEBA1DEB18604FC
:10F91000A70D96D627C77EEA67D6CDCEEB99BDEF69
:10F920004DA600AA0439DECE86FFA710A711A712A4
:10F93000A71339966184FC97614F97C897D397CAEC
:10F940008618BDEB2396CD4848CE0038BDEEFFDFCC
:10F95000CE39CE0010DF9ABDF8BCDF9CCEE077A692
:10F96000141653E40008DF9EDE9CA40008DF9C1BF5
:10F97000DE9AA700088C001C2603CE0030DF9ADE3A
:10F980009E8CE08B26D9CE0002DF9ADE9CC6068DC7
:10F99000527EF72CCE1128860FE6002707BDEC0516
:10F9A0006A0026F9084A850826EF398DE7BDF3ABD2
:10F9B000715AFE0101FA550A0004FEE0BDAD007F58
:10F9C00000D6D6CD8D058D1E7EF8D2BDF8BCDF9A4F
:10F9D000CE0010C60C8D0CCE0030C6088D05CE00B2
:10F9E00002C6067EEFBC96CA2720CE012ABDF77F4D
:10F9F00096D0261696CD91CC4C250DB601949858EC
:10FA0000840F271A7C00584F97CD39CE0048DF9AD3
:10FA10008604C604CE0166BDFFD14A26F539BDE095
:10FA2000AFCE0030C608BDF8948D67BDFB39B6E097
:10FA30005DBDECFCB6E065F6E064BDF3AB31F817F4
:10FA4000001501047C00C9FEE067BDEAC4CE018157
:10FA5000BDEF5326037EEA674FBDF8A4B6E062BD52
:10FA6000F15BBDEA2F908DA3D660437D0048260A46
:10FA70009748974C9750975486339760867FBDF888
:10FA8000A4B6E062BDF169BDEA2F70BDE0B1D760F8
:10FA900020C6CE0181BDEF53275A7F00A1C604D7EF
:10FAA000A0CE0035DFA4C604D7A8CE0166BDEF63A3
:10FAB000DFA6DEA4BDEC8611223B265708DFA4DEBC
:10FAC000A67A00A826E77A00A026DB96A12725B60D
:10FAD000E05CBDECFC8D59CE01A7BDEF53CE014ECD
:10FAE000BDF784BDF6FEB60166840F270786998DA3
:10FAF000337F016639CE01667C00A1DF9A8D18C67E
:10FB00000409BDEFE47C0166B601674C840F26B69C
:10FB10007F01678D0220AFDEA496A87F00A8BDEE0E
:10FB2000FFDFA439CE0166C604BDEFAF5A26FA390D
:10FB3000BDEA2F0296C126F839B6018C4625E48D20
:10FB40003F4848484881A024F697587F009AC60449
:10FB5000D79BCE0038A10326037C009ABDEF4D7AD7
:10FB6000009B26F1D69A2712B6E05BBDECFC8DC057
:10FB700017CE011ABDF784BDF6FEB6E0637EF13CF8
:10FB80003796D7165656979AD89A594997D79B8938
:10FB90003339CE01ABBDEF63CE016EBDFE1F260330
:10FBA0005D2616D6C92615D658C1F1260FD6CCF13A
:10FBB000E04E24058D0BBDF8587EEA678D037EF874
:10FBC000474D270D8B9919BDEFAF965A8B99199711
:10FBD0005ABDF72CBDF829CE011E7EF77F7C00D3DD
:10FBE000B60192840F91D322A8B6E06697C8BDF300
:10FBF000AB1400550C0031F80439FE43FE62FE8D53
:10FC0000FECBFEF000FD2301FD300CFDA90DFDB182
:10FC100012FE2613FDEF14FE091AFE332AFD2E32C2
:10FC2000FE3E338D452B037EEA678D548D472B7541
:10FC30004F7F000ECEFBFA36BDF48E32165AD75ADD
:10FC4000BDEAC4BDEA2F108D212AFC8D282B45D793
:10FC50000E8D172BFC20F03696CB2B0C8D172B0816
:10FC6000960E27044F970E4A3239F62800BDEA2F28
:10FC700002F6280139F62802BDEA2F02F6280339D8
:10FC80005FBDEAFB8618BDEB237C00CBCE0000C62F
:10FC9000897EF894C628CE00108DF6BDEAFB4C8113
:10FCA00005268E8DDB7F00588604975ABDEA2F10FB
:10FCB000BDF89A8D36D658BDF834CEFC0108080838
:10FCC000E10324F9EE01AD00BDFC6A2AFB8D1CBDE9
:10FCD000FC6A2ADC8D1A26F78D319B581981512731
:10FCE00035819926028650975820E48608970F3967
:10FCF000960F27057A000F8108398DEFBDFC6A2B1E
:10FD0000CC9669850427F38DE726F18699BDFC75AD
:10FD10002A028601163986FF9758975ABDEA2F5056
:10FD20007EE800FEE000DF39B6E002973B39C01EF6
:10FD30005858CE00FEBDEF4DBDEF53973ABDEF537F
:10FD4000973BC120270139CE014EBDEF53973EBDF1
:10FD5000EF53973FCE0112C603D79ABDEF63BDEFB5
:10FD6000539B3F19973F17993E19973E7A009A2661
:10FD7000EACE0046C607BDF894DE3EDF4886999776
:10FD80004D16903BD03A8B0119974F178900199760
:10FD90004ED647CE00460CA604A90919A704098C23
:10FDA000004126F3D14726E939BDFA0B867F975CDF
:10FDB00039CE0181C00D58BDEF4DDFD158CE014E77
:10FDC000BDEF4DBDEF53973EBDEF53973F5FDED183
:10FDD0008D1416BDECF384F0D73897395FD73AD736
:10FDE0003BBDFCFC20E88D371B19BDEFAF20335F16
:10FDF000CE01ADBDFDE6C699810924F4973B1627D7
:10FE000003BDEFD0BDFCFC20E7CE01AFC01458BD50
:10FE1000EF4DBDFE1F973BB601AE840F270B39BDDA
:10FE2000EF5309094D39CE01AB5F8DBA973BBDFC4D
:10FE3000FC20F7CE018BC01A58BDEF4D20EBCE0150
:10FE40007020E64FCE0038C624BDF840BDEA2F181A
:10FE5000BDFC572AEF7300608B111924E7D6CB2A1B
:10FE6000E239BDF89A4F9760975886FEC6FFF72192
:10FE700000BDEA2F00B72100BDEA2F40BDFC572A84
:10FE8000EB7C0058484C2BE4D6CB2AD939C6AAD7EC
:10FE900058D70F961043CE0010C608BDF840BDEAF3
:10FEA0002F1B7A000F26ECD6CB2AE839BDFC805AEE
:10FEB000D7CB8D8F7F005A8DA97C005A8DCF7C00C7
:10FEC0005A8D08CE014ABDF77F20E7C601D7588674
:10FED00020BDEB23BDEA2F40BDFC572AF4169658EF
:10FEE0008B01199758174C813925E6D6CB2ADC3976
:10FEF00086FF9758BDEA2F00B6E04D4ACE0069BD97
:10FF0000F19CE5002714364CC601BDF81697584FF2
:10FF1000C601BDED5332BDEA2F404A2BD320DDC6CA
:10FF200020A80084F02754C61020500FCE28006F60
:10FF30000186F0A700C63CE701A7004FCE1000A73E
:10FF400000088C140026F83509A10026D28C100078
:10FF500026F64326E7C620CEFFFFDF9ACB10C170FE
:10FF6000221F2605B6E04C2B18969A8008979A4FC8
:10FF7000A900099C9A26F9818027DF53F7280020E1
:10FF8000FEC690B601BB7C01BBB101BB27EDC680AC
:10FF9000CE1200DF9ACE01008D3786F1979ECE01FA
:10FFA00000969EA7008D4B088C020026F6CE01001D
:10FFB000969E16E800C40F26128D37088C02002684
:10FFC000F17C009E26D88D1D7EE8008D18C680200D
:10FFD000AA36BDEF53DF9CDE9AA70008DF9ADE9CAD
:10FFE0005A26EF3239CE0100DF9ACE1200C6807E4B
:10FFF000EFE44C260286F139E0BFE0C2FF2BE800B7
:00000001FF
