:020000041000EA
:1000000000B5324B212058609868022188439860DF
:10001000D860186158612E4B002199600221596106
:100020000121F02299502B49196001219960352056
:1000300000F044F80222904214D00621196600F024
:1000400034F8196E01211966002018661A6600F04E
:100050002CF8196E196E196E052000F02FF8012189
:100060000842F9D1002199601B49196000215960AB
:100070001A491B48016001219960EB211966A021F2
:10008000196600F012F800219960164914480160C1
:100090000121996001BC002800D000471248134993
:1000A000086003C880F30888084703B5996A0420EC
:1000B0000142FBD001200142F8D103BD02B5186610
:1000C0001866FFF7F2FF186E186E02BD00000240BE
:1000D000000000180000070000035F00212200005C
:1000E000F4000018222000A00001001008ED00E03C
:1000F00000000000000000000000000074B24E7A12
:1001000000200420F7010010C3010010C5010010F9
:10011000C1010010C1010010C1010010C101001097
:10012000C1010010C1010010C1010010C701001081
:10013000C1010010C1010010C9010010CB01001065
:10014000CD010010CD010010CD010010CD01001037
:10015000CD010010CD010010CD010010CD01001027
:10016000CD010010CD010010CD010010CD01001017
:10017000CD010010CD010010CD010010CD01001007
:10018000CD010010CD010010CD010010CD010010F7
:10019000CD010010CD010010CD010010CD010010E7
:1001A000CD010010CD010010CD010010CD010010D7
:1001B000CD010010CD010010CD010010CD010010C7
:1001C00000BE00BE00BE00BE00BE00BEEFF3058054
:1001D000103800BEF2EB8871D85A0010005B001096
:1001E0003802001090A31AE71E481F49086006C88D
:1001F00081F3088810471D480068002801D019487D
:10020000F3E70DA40ECC002902D000F012F8F9E7B4
:100210001749184A002000E001C19142FCD116495B
:100220008847164988471649884700BEFDE701C937
:1002300001C29A42FBD37047005B0010C00000204F
:10024000C0020020005D0010000004200000042017
:10025000005D0010001004200010042000000000C9
:10026000704700000000000008ED00E0000000D032
:10027000C0020020EC8A00200D450010D5020010BD
:1002800005450010F8B5C04606480749091A8B1005
:10029000C90FC91810B5491003D0044B002B00D06A
:1002A000984710BDC0020020C002002000000000DE
:1002B000054B10B5002B03D00449054800E000BFF2
:1002C000FFF7E2FF10BDC04600000000B0050020AF
:1002D000304F001010B504F045FAFA20800001F00C
:1002E00089FC254804F052FA244804F04FFA2448C7
:1002F00004F04CFA234804F049FA00F0E1FE2248E9
:1003000004F044FA00F00AF9204804F03FFA00F043
:100310007DF91F4804F03AFA00F0BAFA00F00CFB3D
:100320001C4804F033FA00F0D5FE1B4804F02EFA06
:1003300000F03AF8194804F029FA00F0D3FD184803
:1003400004F024FA174804F021FA00F0C1FE00F08E
:100350003FF800280BD000F07BFE00F03FFB00F0E0
:10036000D3FE00F0B5FE00F033F80028F3D164208E
:10037000002101F02DFCE8E7304F0010504F001035
:100380005C4F00106C4F0010844F0010A84F0010FD
:10039000C84F0010E04F0010FC4F00101850001024
:1003A0003C50001054500010E821002210B5064BBC
:1003B000490099601A605A601A730021D0230348DB
:1003C00004F062FA10BDC0467C0500207850001091
:1003D000034B987A002802D0587A0123584070477E
:1003E0007C050020034B1B7A03405A1E9341D8B270
:1003F0007047C0467C050020054A137A002905D0C5
:100400000343402040421843107270478343F8E78B
:100410007C050020094A0421137A002806D10B43E9
:1004200008218B43B8310B431372704740B28B43A2
:100430000028F5DAC4310B43F6E7C0467C050020FE
:1004400070B5144D04262C7A002811D134430826A7
:10045000B443B836344306004E40002B12D04A4015
:10046000324052B2002A12DB02239C432C7270BD30
:10047000B44346B2002EEADAC826344306004E40A2
:10048000002BECD14240324052B2002AECDAC223B7
:100490001C43EBE77C05002010B5044C0100E0880C
:1004A00000F096F8E388013BE38010BD7C05002056
:1004B00010B5044BD888013080B2D88000F068F8BD
:1004C00010BDC0467C05002070B50400074DC1B2C8
:1004D000E88800F07DF8E888210A013880B2E880D9
:1004E00000F076F8EB88013BEB8070BD7C050020C6
:1004F00070B5094DE888013080B2E88000F048F816
:100500000400E8882402013080B2E88000F040F85E
:10051000204380B270BDC0467C05002010B5154850
:1005200082B008220021040002F0B0FD80220021E8
:10053000D200114802F0AAFD8022FF2112020F48CA
:1005400002F0A4FD0E4B0C3CA36080239B00E381D2
:1005500080235B0323608023E0219B016360094BC0
:10056000094A009309020023084804F08DF902B0FB
:1005700010BDC046A8050020D8050020D8090020DD
:1005800000E00020FF010000FFFF0000A850001065
:1005900010B5040000F0C4F80B4B1A89944203D341
:1005A00059898A18944206DB9A89944203D3DB89DD
:1005B000D1188C4200DB10BDA41AA4B29C42FAD21E
:1005C000024B1855F7E7C0469C050020D8050020CF
:1005D00010B50C4A1389984203D35489E318984202
:1005E00006DB9389984203D3D2899C18A04202DB90
:1005F00000F0D2F810BDC31A9BB29342F8D2024A5F
:10060000D154F5E79C050020D805002070B5D02511
:100610000024012682B02D06200000F0BDFD33002D
:10062000A340200000220121AB62013400F0A0FDB4
:10063000082CF1D1D02501262D06200000F0ACFDBC
:100640003300A34001346B62AB61152CF5D115204A
:1006500000F0A2FD80239B036B621620AB6100F0CB
:100660009BFD8023DB036B621A206B6100F094FD1D
:100670008023DB04AB62002201211A2000F078FD08
:100680001B2000F089FD80231B05AB6200220121A5
:100690001B2000F06DFD1C2000F07EFD80235B051B
:1006A000AB62002201211C2000F062FD13491448B6
:1006B00004F0EAF807220021124804F0E5F80823C4
:1006C00014220093082105330F4804F0DDF81521AA
:1006D0000E4804F0D9F816210D4804F0D5F81A2177
:1006E0000C4804F0D1F81B210B4804F0CDF81C2174
:1006F0000A4804F0C9F802B070BDC046E0500010CE
:10070000F450001018510010305100105C510010CE
:10071000705100108451001098510010AC5100101D
:1007200070B5D024050000F02DF901232406A36242
:100730000133A3620233A3620433A3620833A362CA
:100740001033A3622033A362ED044033A36201227D
:100750000023ED0C03E0013361610D2B0CD0190077
:100760001000083188400100280018410242F2D1EF
:100770000133A1610D2BF2D1D024802680232406E1
:10078000B603DB036661636100F0EEF8656800F0B4
:10079000F9F8E8B2A66170BDF8B5D02504000E00E6
:1007A00000F0F0F801232D066B6201336B62023317
:1007B0006B6204336B6208336B6210336B622033FD
:1007C0006B62E10440336B6201220023C90C03E039
:1007D00001336C610D2B0CD01C0010000834A040BC
:1007E0000400080018410242F2D10133AC610D2B24
:1007F000F2D1D02000240C3B000603E0013441611B
:10080000082C09D0320019002241A1401342F5D131
:1008100001348161082CF5D1D025802780262D0652
:10082000BF03F6036F61AE6100F09EF800F0AAF816
:100830000123AF616E61AB620133AB620233AB6225
:100840000C33AC62AB621033AB622033AB6240332B
:10085000AB62F8BDD0231B06586801234001C00FCE
:100860005840C0B27047C046D0231B0658680123C9
:100870000001C00F5840C0B27047C046D0231B06CD
:1008800058680123C000C00F5840C0B27047C0462E
:1008900070B5234C8AB02000224904F073F9012678
:1008A000050006211D2000F049FC01231D22002126
:1008B0002000009604F080F9002380220593F8239D
:1008C00052025B0202920393C02302A91B0310226F
:1008D00006A8049302F0E0FB6B1CEA011B03134320
:1008E00006A9102202A8079302F0D6FB0E4B2A009D
:1008F00005930E4B00210293200002AB04F0B6F9E1
:1009000023681D213343236023680948B3432360D0
:1009100003F0BAFF074803F039FF0AB070BDC046C4
:100920000000205068540010A0030004002E0200B4
:10093000C0510010E05100100121074A10B51368A2
:1009400006480B4313600022054B1A60054B1A70D2
:1009500003F01CFF10BDC0460000205014520010D0
:100960008C050020E98A0020D0218022090692050A
:100970004B681342FCD00122014B1A707047C046ED
:10098000E98A002030B5134D2B78002B1FD0D021E1
:100990008022090692054B681342FCD10E4C236855
:1009A00001332360D0218022090692054B6813424F
:1009B000FCD0D02080220006920543681900114027
:1009C0001342FAD1297023680133236030BD024CF1
:1009D000E8E7C046E98A00208C050020F8B5C94C3C
:1009E0002088431C2380FFF7D3FDFF281BD8C64A6D
:1009F0008300D3589F462088431C2380FFF7C8FDFF
:100A0000050020882D02431C2380FFF7C1FD2843E9
:100A100080B2FFF7BDFDA070FFF7FCFC00210220B3
:100A2000FFF7EAFCF8BDB94B22880100013A180033
:100A300003F02AFF01236372F4E7FFF739FD207208
:100A4000FFF736FDE070FFF733FDA070FFF750FDB4
:100A5000A080FFF74DFD2080E4E7E078FFF71CFD64
:100A6000E0E72088431C2380FFF792FD05002088E3
:100A70002D02431C2380FFF78BFD0543ADB2A188F7
:100A80002800090A0135FFF7A3FD2179A8B2FFF775
:100A90009FFDA088000AFFF7BDFC00210220FFF7A0
:100AA000ABFCBFE72088431C2380FFF771FD0500E6
:100AB00020882D02431C2380FFF76AFD0543ADB259
:100AC0002800FFF765FD01350600A8B2FFF760FDBD
:100AD000330203433000A380FFF79CFC0021022077
:100AE000FFF78AFC9EE7012320886372FFF7ECFC86
:100AF000A088FFF7E9FCA078FFF7CEFCE078FFF7CD
:100B0000CBFC207AFFF7C8FC8CE7A078FFF7C4FC89
:100B100088E7A388013BE38084E7FFF7C9FCE07026
:100B200080E7FFF7C5FCA0707CE7E3880133A38072
:100B300078E72088431C2380FFF72AFD0500042066
:100B4000FFF750FC002800D16CE7238868B2C0187A
:100B5000208067E72088431C2380FFF719FD0500EC
:100B60000420FFF73FFC002800D05BE7EDE720887A
:100B7000431C2380FFF70CFD05000120FFF732FC2A
:100B8000002800D14EE7E0E72088431C2380FFF7D0
:100B9000FFFC05000120FFF725FC002800D041E7FD
:100BA000D3E72088431C2380FFF7F2FC228843B25E
:100BB0009B18238036E72088431C2380FFF7E8FC3E
:100BC00005005CE72088431C2380FFF7E1FC05005B
:100BD00076E72088431C2380FFF7DAFC0500208895
:100BE000FFF772FCA388ED1825801BE7E078013041
:100BF000C0B2E070FFF70EFCE17880394B425941FA
:100C00000220C9B2FFF7F8FB0CE7E0780138C0B268
:100C1000E070FFF7FFFBE1787F394B42594102203A
:100C2000C9B2FFF7E9FBFDE62088431C2380FFF7EC
:100C3000AFFCA3781840EEE62088431C2380FFF722
:100C4000A7FCA17802000D1AAEB2EDB20123280074
:100C5000FFF7F6FBFF21B142894101204942FFF72E
:100C6000CBFBA570DEE62088431C2380FFF790FCB9
:100C7000050020882D02431C2380FFF789FC0543D3
:100C80002580CFE62088431C2380FFF781FCA388C2
:100C9000C0182080C6E62088431C2380FFF778FC1C
:100CA000A388A178C01880B2FFF792FCA078FFF764
:100CB000B1FB00210220FFF79FFBB3E62088431C15
:100CC0002380FFF765FCA388C01880B2A1E62088C6
:100CD000431C2380FFF75CFCA178E5E72088431CD8
:100CE0002380FFF755FC94E62088431C2380FFF700
:100CF0004FFC05002088FFF7E7FB23886DB2ED1855
:100D000025808FE67C0500207454001024520010CA
:100D10002088431C2380FFF73BFCA17802000D18BC
:100D2000AFB2EDB2002306002800FFF789FBFF21D8
:100D3000B942894101204942FFF75EFB0F23A278A7
:100D400001211A403340D2180F2A00DC0021202054
:100D5000C9B2FFF751FBA57064E62088431C2380CD
:100D6000FFF716FCA3781843C0B254E62088431C52
:100D700023804EE62088431C2380FFF709FCE1789E
:100D8000FFF726FCE078FFF745FB00210220FFF784
:100D900033FB47E62088431C2380FFF7F9FBFFF76E
:100DA000F7FBE070FFF736FB00210220FFF724FB82
:100DB00038E62088431C2380FFF7EAFB05002088E3
:100DC000431C2380FFF7E4FB2B0203432800A3808E
:100DD000FFF720FB00210220FFF70EFB22E6208810
:100DE000431C2380DBE72088431C2380FFF7D0FBD4
:100DF000050020882D02431C2380FFF7C9FB060055
:100E000020883543FFF760FB25800BE62088431CD4
:100E10002380FFF7BDFB050020882D02431C2380A3
:100E2000FFF7B6FBA17828433DE72088431C2380C9
:100E3000FFF7AEFBA1884518ADB221E62088431C20
:100E40002380FFF7A5FBA588451938E62088431CB9
:100E50002380FFF79DFBA388E178C01880B28FE75D
:100E60002088431C2380FFF793FBA388C01880B21F
:100E700095E72088431C2380FFF78AFB0500208824
:100E80002D02431C2380FFF783FB2843E17880B2C7
:100E900076E72088431C2380FFF77AFB0500208833
:100EA0002D02431C2380FFF773FB284380B276E7B3
:100EB000A0780130C0B2A070FFF7ACFAA1789CE630
:100EC000A0780138C0B2A070FFF7A4FAA178A3E619
:100ED000E078A070FFF79EFAA4E5A078E070FFF735
:100EE00099FA9FE510B5FFF7B5FCFFF7BDFC0B4B7A
:100EF0001870FFF7C3FC0A4B18700A4803F046FC51
:100F000009490A4803F0C0FC09490A4803F0BCFC3F
:100F100009480A4903F0B8FC10BDC046EA8A00201F
:100F2000EB8A002058520010F8FF000078520010A1
:100F3000FCFF000090520010A8520010FEFF0000BD
:100F400070B50C4803F022FC00230B4D0B486B805E
:100F5000AB80EB80D0332B81FFF71AFB04000848ED
:100F6000FFF716FB2102014389B20648298003F0EE
:100F70008BFC70BDC05200107C050020FEFF0000FD
:100F8000FFFF0000D052001070B5134D13482988A0
:100F900003F07AFC2888FFF797FAA888FFF794FAFD
:100FA000A878FFF779FAE878FFF776FA287AFFF75A
:100FB00073FA01211020FFF71FFA0948FFF7E8FA3A
:100FC00004000848FFF7E4FA2102014389B2064809
:100FD000298003F059FC70BD7C050020E852001008
:100FE000FCFF0000FDFF00000453001070B5134D1E
:100FF0001348298803F048FC2888FFF765FAA88879
:10100000FFF762FAA878FFF747FAE878FFF744FAA3
:10101000287AFFF741FA01211020FFF7EDF909487E
:10102000FFF7B6FA04000848FFF7B2FA21020143BD
:1010300089B20648298003F027FC70BD7C0500209A
:1010400018530010F8FF0000F9FF0000345300109F
:1010500070B5FFF7FFFB0500FFF706FC0400FFF784
:101060000DFC144B002802D01A78002A1DD01870ED
:10107000114E124B002C0AD01A78002A07D10132E7
:1010800032731A70FFF780FF0023337370BD327B19
:101090001C70002AF6D1002DF8D01020FFF7A2F91D
:1010A0000028F3D1FFF7A2FFF0E701321A70FFF733
:1010B00047FFEBE7EB8A00207C050020EA8A00204E
:1010C00010B5024803F062FB10BDC0464853001043
:1010D0007047C04610B50949094803F071FE012167
:1010E000122000F02BF80121132000F027F8132222
:1010F0001221044803F0C8FB10BDC04640420F0057
:1011000000C003406853001000B5094B83B01B7842
:10111000002B0BD06A46074B07481B8801A95BBA16
:1011200093808023D380042203F0D2FE03B000BD5D
:10113000180200207C05002000C00340094A8300FB
:101140009A1810B514684022544080322240064C50
:10115000C000A44663441A60044B9C46604441604E
:1011600010BDC04604C0014004D001400040014011
:10117000074B8000C3181B68C90092000A435A40FD
:101180000C231340034A9446604403607047C046F2
:1011900004C0014004D001400123D0228340120644
:1011A00093629361094A83009A1811684022514062
:1011B00080320A400649C0008C4663441A60054BE1
:1011C0009C460523604443607047C04604C001400C
:1011D00004D00140004001400FB400B5084883B07E
:1011E00003F0D4FA049B002B07D005A91800019145
:1011F00003F06EF9034803F0C9FA012003F080F907
:101200009C530010AC530010EFF3108072B6034AE9
:101210001368002BFCD0BFF35F8F70472C0100D008
:10122000BFF35F8F0022024B1A6080F31088704773
:101230002C0100D070B5EFF3108C72B60D4D2B68F9
:10124000002BFCD0BFF35F8F0724CB08C618C05C0F
:1012500001230C40A3401C000440034207D1184363
:101260003070BFF35F8F2C608CF3108870BD10005E
:10127000FFF7B2FF2C0100D0044A1078431CDBB208
:10128000172B00D9102313707047C0461902002095
:101290000021044B044ABFF35F8F02C39342FAD18B
:1012A0007047C046000100D0800100D0054B064ABF
:1012B0001360064A136053609360D36013615361F7
:1012C000936170478080808000E400E004E400E0E7
:1012D0001F2318401E3B8340002905D0C021044A2B
:1012E0004900535013607047802201498B50FAE740
:1012F00000E100E070B50D00EFF3108672B60F4A02
:101300001368002BFCD0BFF35F8F0D4B10309B6830
:1013100084001B590B4A934203D09D4201D000F038
:101320003FFF074B9B681D51BFF35F8FBFF35F8F7C
:101330000022024B1A6086F3108870BD240100D091
:1013400000ED00E0CD010010F0B5DE4657464E46F8
:101350004546E0B50C0083B0EFF3108872B6634ADF
:101360001368002BFCD0BFF35F8F614B61499A6813
:10137000030010339F00D55901938D4243D0A542FD
:1013800054D05D4EAA1B2F2A3DD85C4B9B461B6850
:10139000994601231A009C4682404B4613401F2267
:1013A00099466346024093409A4680225B465046E7
:1013B0009850BFF35F8FEFF305839B46002B37D028
:1013C000019B5B4501D000F0EBFE01232A009A430C
:1013D0009068844208D176E04B005B189B00F318BC
:1013E0009868844236D01A00062151560029F3DA53
:1013F000844254D04B46002B27D0C02251463F4B4D
:101400005200995019603A4B9B68DD51BFF35F8FD2
:10141000BFF35F8F0022354B1A6088F3108803B04A
:10142000F0BCBB46B246A946A046F0BD0D00EAE7B7
:101430002A0063469A4390688442D5D1062010560C
:10144000130000280ADA0D0031E0802351462B4AB0
:10145000D150D8E706201856002821DB4200111889
:10146000890074188B46A1689960E179D9710621C9
:1014700061569971002924DBA488F11A64052415AA
:101480005C44091909051E4C490D21439980131824
:101490001C4A9B001178F31899711070AAE7130089
:1014A0005946002914D1FF3191711749918015498E
:1014B0000A789A71154A9B1B5B415A43120D0A70B8
:1014C00098E71149E2E70620105613000028C5DA14
:1014D0000F4A1049D21A083A5002400D0143998030
:1014E0000D4952080A43DA8084E7C046240100D03F
:1014F00000ED00E0CD0100101C02002000E100E042
:1015000000E0FFFFE88A002001BDFFFFAAAA00005B
:101510005602002000F0FFFF00F8FFFFF0B5C646BE
:10152000012600B50643EFF30584EFF3108C72B685
:101530001C4A1368002BFCD0BFF35F8F1A4FA40026
:10154000BB681A4D1B590200984619490023521BCB
:1015500052415143090D2A0049B2B04515D0062425
:1015600014578C4215D001330C32042BF7D1114B98
:101570001A7819708271BFF35F8F0022094B1A60CD
:101580008CF3108880BCB846F0BDBB680A4A1A517B
:10159000EDE75A00D3189B00ED18FF23AB71074B02
:1015A000AB80E4E7240100D000ED00E01C02002045
:1015B000AAAA0000E88A0020CD01001001BDFFFFAB
:1015C000024B9C4661448900016070474000003432
:1015D00070B5114C114DAC421CD2FF260BE0FFF749
:1015E0004BFE01002000FFF7EBFFA680BFF35F8FEB
:1015F0000834AC420ED22368002BF0D1FFF73CFE3A
:1016000001002000FFF7DCFF2671BFF35F8F083475
:10161000AC42F0D370BDC046B8020020C00200202A
:101620000A4B1968EFF3108072B60A68002AFCD0E2
:10163000BFF35F8F1B68BFF35F8F00221A6080F3D8
:10164000108840BF002000217047C046DC8A00207F
:10165000F0B5DE4657464E464546E0B587B0EFF357
:101660000583032201251A40954091008B46B04B1B
:1016700003925C58AF4B02951D60AF4B0493029BE5
:10168000AE4843630823E55E002D38DAA3881BB219
:10169000002B00DBAEE0A379002B00D0EFE00823A5
:1016A000E15E002921DB4B0062695B18DB00D31887
:1016B0009E68DD68731C01D16B1C0ED09F48010031
:1016C0005944826A0B69B71A9B1A9F4215D30123AA
:1016D000026A039883401A420FD0984800F034FB06
:1016E0008D4202DCCBD18642C9D940BF07B0F0BCE5
:1016F000BB46B246A946A046F0BD0E61EDE7626961
:101700006B0090465B19DB00984443469E68DF6897
:1017100000F01AFB8F42B9DC00D1FBE0002F00DAA9
:10172000E0E04246434652691B699146049A93425F
:1017300000D1D1E042460821605E5288000449464B
:1017400010439847009001910099019A0B001000F6
:10175000134300D1C6E013000A00B61A9F410028C7
:1017600006DB764800F0F0FA009E019F36184F41E4
:1017700043469E60DF6000229A5E002A00DA85E719
:10178000530099186069C90041189A468B68C96866
:101790009946B94200DD79E702D1B34200D975E735
:1017A00008239C46A444059565462281A4465346D9
:1017B0002C0006E053009918C90041188D68C968CB
:1017C000A9469B18DB00C318B94206DC00D1ABE088
:1017D0001C000023E25E002AECDA230064469C46EB
:1017E00043461A806346059D1D80A3881BB2002BCB
:1017F00000DA50E72269EFF3108172B61368002B0C
:10180000FCD0BFF35F8F0123A7885B42A3803FB268
:101810002369BFF35F8F00221A6081F31088002FC5
:1018200000DA38E7230008332200984666697B0017
:10183000DB19DB00F318996840468C460824115FD9
:101840009A46DD68002907DA0EE0AB4240D000235B
:10185000E15E2000002906DB4C006418E400341926
:10186000E368AB42F1DD5346078000201F5E19801C
:10187000002FDCDA1400A379002B00D10FE700233E
:10188000A37126000823E15E08364B1C00D12CE72B
:10189000B446656903E084464B1C00D1FFE64B006B
:1018A0005B18DB00E8180A00E95E43881BB2002BD6
:1018B000F1DA01267642F7178660C7600826A35F33
:1018C0009342E9D063461980238903802281E3E7AC
:1018D000A3686345BBD9C6E74B4648461B69984792
:1018E00000281BD143461B8822692381EFF3108314
:1018F00072B611680029FCD0BFF35F8F4146628841
:101900000A8022696580BFF35F8F0021116083F335
:101910001088BBE6864200D800E7B7E64B461A6857
:101920005B68009201930FE7B14500D850E754E798
:10193000C80500203C7005405116001000400540CD
:1019400070B51D4C2369002B04D00A211B48FFF7FA
:1019500037FE70BD1A4D0321280000F0EBF9E56059
:10196000FFF78AFC174B62699C4603232370D02340
:101970001B061B6860446370134B8000A360012347
:101980005B42A38010336380104B206113800133CE
:101990009BB218320F2BF9D10D4B0320DC600824C9
:1019A000074B0C491C62FFF7A5FC01210320FFF740
:1019B0008FFC094B1C60C8E764020020DC8A002011
:1019C0000040054040000034FFFF1000FFFF000012
:1019D000C8050020511600103860054070B50100A0
:1019E0000469EFF3108C72B620680028FCD0BFF3B6
:1019F0005F8F02200D5E4C6968004019C0002418FA
:101A00000869002D36DB26884E80BFF35F8F0026E5
:101A100006608CF31088E3606388049801332061CA
:101A20005B0405985B0CA26060611A1C002B1FD040
:101A300093B22804628018430A69EFF3108C72B6DF
:101A40001368002BFCD0BFF35F8F8B8823808D80C1
:101A50000B69BFF35F8F00221A608CF310880B783C
:101A600001329A40CB6808498C4663441A6070BDC5
:101A70000122DDE7BFF35F8F002303608CF3108842
:101A800001204042F3E7C0463C20000010B54389E6
:101A90000A1493421ADD53009B184269DB00D318E5
:101AA0000469EFF3108C72B62268002AFCD0BFF3F1
:101AB0005F8F5A88090494B2090C8A4208D00369DE
:101AC000BFF35F8F00221A608CF31088002010BDD6
:101AD0008022120214435C80012302698371BFF3E8
:101AE0005F8F002111608CF31088044902788C46C6
:101AF0009340C268012062441360E8E73C20000084
:101B0000F0B506000F0006246442E517C646A41986
:101B10007D4100B582B08D4214D811D000F01CF97F
:101B200022002B00121A8B41002B15DC002B44D015
:101B30003000390000F04EF902B080BCB846F0BD6C
:101B40008442EBD90024002500F006F922002B0086
:101B5000121A8B41002BE9DD00F0FEF822002B0069
:101B6000121A8B41002B0ADB00230193144B220035
:101B7000009314482B00FFF731FF0130D8D0A04666
:101B800029000024104A1148536A994204D8956AE2
:101B90004545CDD29942CBD10568EFF3108C72B692
:101BA0002B68002BFCD0BFF35F8F0368BFF35F8F00
:101BB0001C608CF3108820BFE6E7002AB8D0CBE782
:101BC000211600106402002000400540DC8A00203D
:101BD00070B504000D0000F0BFF80019694100293C
:101BE00002DA012002494042FFF78AFF70BDC04679
:101BF000FFFFFF7F70B5060000F0AEF8FA22040088
:101C00000D00002330000021920001F0D9F90019E5
:101C10006941002902DA012002494042FFF770FFC2
:101C200070BDC046FFFFFF7FF0B557464E46DE460B
:101C30004546E0B506000F0085B0EFF305839946F1
:101C40008B46002B12D0384900204B6ABB4206D38A
:101C50008A6ADB1B591E8B41B2424041184305B0D2
:101C6000F0BCBB46B246A946A046F0BD2F4B9A46F3
:101C7000DB68984653461B784046039300F064F8AF
:101C80004246039B040004339B009B580D001B1A23
:101C900039003000001BA941894510DC0DD020BF60
:101CA000214A0020536A5B45D9D3926ADB1B591E37
:101CB0008B41B24240411843D1E78342EFD900F053
:101CC0004BF832003B00121A8B41002B1ADB002329
:101CD0000193174B3200009350463B00FFF77EFE06
:101CE000011E0FDD104B5A6A5A451BD39B6AB34243
:101CF00016D35046FFF7CAFE0B4A0020536A5B45D5
:101D0000ADD3D2E7084A0020536A5B45A7D3002031
:101D1000926ADB1BB24240415A1E934118439EE730
:101D20005A45E6D120BFE4E70040054064020020A8
:101D30002116001010B5024A0248FFF77BFA10BDC9
:101D4000B0530010500500200300416A0A00986A51
:101D5000596A8A42FAD17047034B596A0A00986A55
:101D6000596A9142FAD170470040054070B50400AD
:101D70000D00174A536A1900966A536A8B42FAD1CA
:101D80003000190024184D41AB4216D813D0104A28
:101D90002B00526A954203D90D494A6A9A42FCD3F4
:101DA0009A4207D10A4A02E0516A994202D1916AE5
:101DB000A142F9D370BDA642E9D9054B5B6A1C006C
:101DC0005A1CEFD0012301246442E5175B42E3E78C
:101DD00000400540064A536A9942FCD807D1044B9B
:101DE00002E05A6A914202D19A6A9042F9D8704749
:101DF00000400540F8B5040006200D0000F028F969
:101E00002900C00000F0D2FA0130C30921D01F4AD6
:101E1000934233D900231E4A1E4F6262A362256B90
:101E2000EB071DD51C4B1D4AE3181A60666AA36AAE
:101E30000620B601F61800F00BF9194900F0B6FAC1
:101E4000B6020100300000F0B1FA0021FFF78EFF6A
:101E500006E0402701226262A362256BEB07E1D412
:101E60000022E36A0F4B0620E3181A60256300F096
:101E7000EFF83900800000F099FAF8BD4006800EB6
:101E80009F011A003F180300E5E7C046FEFF00006F
:101E9000FFFF0000C0FF3F003030000001030000E2
:101EA0004E0E00002C10000070B5040006200D003E
:101EB00000F0CEF800282CD0164B1749E3185A1E14
:101EC00093418022120494465B429B0D134A9B056A
:101ED00063441360124A136018000A689043FBD1F0
:101EE0000C4B104AE31859424B4180215B004900DA
:101EF000995220002900FFF77DFF7023E26A5A40C3
:101F00000E331340084AA2181360084B23630323BF
:101F1000A36470BD0080FCBF08C0004000E000402A
:101F200000F00040E08A00202C10000001030000B7
:101F3000F0B5DE4657464646C0B51F00334B440059
:101F40009C462418A400644416006368089A8B46D3
:101F5000934200D26260031FDBB29846012B2FD957
:101F6000C02380229B01E31812011A60284B8500D0
:101F700059599A4600291AD17301E0262268534024
:101F80001E40802342465B01E3181E60012A2FD9C0
:101F9000802380229B01E31812011A60089B636072
:101FA00053465F51E0BCBB46B246A846F0BD5869F7
:101FB00000F0FCF9013043001B18033BFDD2DBE7C6
:101FC0005B46012BCCD1C02303229B01E3181A608E
:101FD000023AA3681A42FCD07301E0262268850009
:101FE00053401E4080230A4A5B019246E3181E605C
:101FF0005A462168514003220A401A6001235A467A
:102000009340A2681342FCD0C2E7C0460080004063
:1020100054050020F0B583B005000E0018000899A3
:10202000170000F0C3F9089A0300140231003A00C7
:1020300028000094FFF77CFF03B0F0BD10B58024AA
:1020400082B064000094FFF773FF02B010BDC04679
:10205000014B8000C058704754050020F8B50400BB
:1020600021481E0017000D0000F0A0F90100380003
:1020700000F09CF9069B36041B031E432368002BCB
:1020800020DB1A4B1A49E3185A1E93418022920111
:1020900094465B421B0B174A1B0363441360164AAA
:1020A00013601F000A689743FBD1144B2560E218A8
:1020B0002123A06013602368002BFCDA0823E6606C
:1020C0001360F8BD3F2322681340AB42D9D1A36807
:1020D0001B051B0D8342D4D1EE22E368D2021340CC
:1020E000B342CED1EDE7C046001BB7000040FDBFB4
:1020F00008C0004000E0004000F000400430000054
:102100008023024A9B000B43D36270470080054046
:10211000002310B50100988A1B8B984710BDC0465C
:10212000162310B50100188802331B88984710BD8C
:10213000F8B54746CE4680B50F1E18D014239946F1
:10214000043304000025012698464B461888434670
:1021500021681B88984701C4431E984101350640F9
:10216000AF42F2D13000C0BCB946B046F8BD01263E
:10217000F8E7C046AA23064A1B0113608D235B00C3
:10218000D3600449044B19605368002BFCDA704794
:102190000040024000B0FA00006002407047C046B4
:1021A00010B50148FFF718F8D453001070B5074D6B
:1021B000074EB54209D20024013E761BB60808CD71
:1021C000984723000134B342F9D170BDF04E00109E
:1021D0002C4F0010054B064A06491A60064A074B69
:1021E0001A6010000B689843FBD1704700E0004074
:1021F000BFCDFBFE08C00040FE7F3C0000F0004069
:10220000044BDB6C002B03D18022034BD2021A60FB
:102210007047C046000011504C201150044A054B35
:102220001A60054A1368DB018033FBD17047C04652
:10223000FFFFFF0100F0004008C000404022034BB8
:102240009A675A671A67DA667047C04600F001401D
:1022500010B5FFF71DF810BD70B5044D044CA9680A
:10226000C022200000F018FFAC6070BD00ED00E05F
:1022700000000020002310B5294C82B0A367FFF7AF
:1022800079FF0122274B1A60636C012BFCD10322DA
:10229000254B1A60224A936B012BFCD1013300932A
:1022A0000121224A22480433FFF7D8FE05230121E9
:1022B0000093204A2048FFF7D1FE0022022104208B
:1022C0001E4BFFF7BBFE0022012105201C4BFFF730
:1022D000B5FE0022002107201A4BFFF7AFFE0022B7
:1022E00000210820174BFFF7A9FE8023DB00009395
:1022F000002200210920134BFFF78CFE0022104B17
:1023000000210620FFF79AFE0420FFF7A1FE0E49E8
:1023100000F04CF801000020FFF7F2FE02B010BD03
:10232000008000403CB0004030B00040002F6859B1
:1023300000800240008C864700C00240001BB700AE
:1023400040597307006CDC0240420F000148042131
:10235000014B18478002002031210010124A936F70
:102360009B0815D29066D166002905D0FFE7FFE7EC
:10237000FFE7516F106F704704B580210906C2173F
:102380005140002800D0C84302F09AFD002104BD4E
:10239000F0B5146E556E576F166FFFF7E3FF1466B6
:1023A000556657671667F0BD000000D0114A936F5D
:1023B0009B0813D210665166002905D0FFE7FFE79E
:1023C000FFE7516F106F704704B5002801D000205F
:1023D000C04302F075FD002104BDC046F0B5146E87
:1023E000556E576F166FFFF7E5FF14665566576712
:1023F0001667F0BD000000D094464A4A926F9208DA
:10240000624601D228E0C046F0B5464E346E756E85
:10241000776F366F00F020F89446424A146655668E
:10242000576716676246F0BD94463E4A926F92081F
:10243000624601D254E0C046F0B53A4E346E756E35
:10244000776F366F00F04CF89446364A146655663E
:10245000576716676246F0BD002B24DB11D00029B8
:102460003EDA00B5C943404200D1013100F038F8EE
:10247000C943404200D10131DB43524200D1013314
:1024800000BD002AEBD1002801D1002905D0002091
:10249000C90FC90701D1C043410800B502F008FDCA
:1024A0000022002300BD00B500290ADBDB435242B5
:1024B00000D1013300F014F8C943404200D101318A
:1024C00000BDC943404200D10131DB43524200D13B
:1024D000013300F005F8DB43524200D1013300BD67
:1024E000002923D1002B18D1002A0CD0BC460D4F57
:1024F00038667A6600210023FFE7FFE7FFE77A6F7F
:10250000386F67467047002801D00748010000B5C2
:1025100002F0CEFC0022002300BD02000B000020D0
:1025200000217047000000D0FFFFFFFF002B00D00C
:10253000BFE0130C28D1002AE7D080B4114F3966D0
:102540007A66FFE7FFE730B4040C7B6F396F1B043A
:1025500023433B667A66FFE7FFE7FFE7C04684B2A6
:102560007B6F3D6F1B0423433B667A66FFE7FFE703
:10257000C04600232C042D0C7A6F386F0019694176
:10258000B0BC7047000000D0F0B594460025140E92
:1025900001D112020835140F01D112010435940F34
:1025A00001D192000235D40F01D152000135D40B74
:1025B0000134254F7C66254C3C660E0C93B2FFE738
:1025C000FFE7FFE73C6F6643360C7703BE46734375
:1025D000DF0B5B04C01AB941130C7343DB18C91A33
:1025E000CE086643360CB64493B273431F0F1B01EB
:1025F000C01AB941130C73431F0B1B05C01AB94114
:10260000860D8F023E436643360C092D24DB520AA9
:102610007243801A7703460A6643360C16235B1B07
:10262000DE40DF40BF1964466643821B70460435B6
:1026300006330100D940A840C01900D30131A2429D
:1026400006D20023F0BD0000000000D0FFFFFFFF16
:10265000121B0130F3D3F1E709277F1BFE406446CC
:10266000A2B27243801A00D20139220C7243130CB9
:102670001204821A99410B00704604351337010089
:10268000F940A840801900D30131002B02D1A242A9
:102690000AD2F0BD013000D30131121BFAD2013B46
:1026A000F8D1A24200D2F0BD013000D30131121B9B
:1026B000F7E7F0B51C0C00D080E00CB400251C0A34
:1026C00004D11B02160E3343120208351C0B04D131
:1026D0001B01160F3343120104359C0B04D19B00E0
:1026E000960F334392000235DC0B02D192185B4106
:1026F00001351C00971864410134464F7C66464CF6
:102700003C660E0CFFE7FFE7FFE7C0463C6F664301
:10271000360C7703BE4697B27743C01B00D201390F
:10272000C01B00D201399FB27743C91BC91B170CCC
:1027300077437E04FF0B801BB941CE086643360CFD
:102740000C2D33DBB644120B1F053A431B0B97B21B
:102750007743C01B00D201399FB27743C91B170CC6
:1027600077433E043F0C801BB941860D8F023E43E8
:10277000664329277F1BFE400C3D7746AF40BF19BB
:1027800030BCA2B2ABB272437343801A9941220C9F
:102790007243130C1204801A994102000B00013796
:1027A000001BA941F9D2781E0021F0BD0C277F1B28
:1027B000FE4077467F0BAF40FF19E0E700245D1C29
:1027C00007D0144F7D663966FFE7FFE7FFE7FFE7B5
:1027D0003C6F95B29EB265436643401BB141150CF8
:1027E0001E0C6543664336042F0C3E432D04401BEC
:1027F000B141994204D202000B0020000021F0BD3B
:1028000001D19042F7D3801A994101349942F2D311
:10281000F6E70000000000D0FFFFFFFF4840414006
:10282000484018B41B4B5B68FC46019308BD04DFAD
:10283000932A001018B4174B1B68FC46019308BD7F
:1028400000DF9D2A00109446134A926F920809D225
:10285000624618B40F4BDB68FC46019308BD0CDFE1
:10286000552D00100C4AF0B5146E556E576F166F4B
:102870006246FFF7EEFF084A14665566576716670B
:10288000F0BD18B4034B9B68FC46019308BD08DFFC
:10289000F92B001040040020000000D0FFB550408C
:1028A0004240504059404B40594000E0FFB5154F61
:1028B0004C00640D03D0BC4204D10C0314D800209A
:1028C000090D09055C00640D03D0BC4204D11C0352
:1028D0000AD800221B0D1B0501264B4009D44B4092
:1028E00003D58B4200D18242FFBD9942FCD1904278
:1028F000FFBD0B43DB1803431343F5D0C94349180D
:10290000FFBD0000FF07000000B5FFF7CFFF8041CB
:1029100000BDC04600B5FFF7C9FF01D9002000BDCA
:10292000012000BD00B5FFF7B9FF01D9002000BDAF
:10293000012000BD00B5FFF7B1FF804100BD0120BF
:1029400040054A00121804D85A00121801D8002075
:1029500070470120704700000021002805D1704712
:10296000C1174840401AFAD0C90713B5064B1B6877
:1029700098470CBC441CA2401005120B0349091BCC
:1029800009051943114310BDD88900201F04000018
:1029900010B54C00620D8023D218DB00D21A5B0503
:1029A0007E2A10DD9E3A13DACC1709034908194331
:1029B0005242D140640001341532202A05DAD04059
:1029C0000843604310BD002010BD0846604310BDA1
:1029D000C80FC018013810BD18B4044B5B6AFC4620
:1029E000019308BD24DF052F0010000040040020E3
:1029F000132370B51C78012C19D014DD1248FFF791
:102A00008FFB06001148FFF78BFB114D8022310030
:102A1000280000F041FB022C13D00E48FFF778FB92
:102A20000D4B186070BD0D4A094DAA64F5E7084DBD
:102A30000A4A29002B00803104C38B42FCD1AA64CE
:102A4000EBE7064AAA64E8E7534400005346000057
:102A5000400400204C330000D8890020612A001077
:102A600007B5604601880A0A0230DF2AFAD1C9B2E6
:102A7000820804D3028840880004104300E0006804
:102A8000014A5050039007BD400400200FB403BC1E
:102A90000CBCF0B50124E407634000E0F0B50C0D78
:102AA000CF0F661E3605891B640503D3C943404218
:102AB00000D30131640D03D0661CF60A07D0E41B75
:102AC00000207F00791C89078912803C24031D0D9A
:102AD000DF0F6E1E36059B1B6D0503D3DB43524291
:102AE00000D301336D0D03D06E1CF60A07D0ED1B29
:102AF00000227F007B1C9B079B12803D2D032F1B18
:102B0000661B58D4A446202E46DA20371400BC4059
:102B10001D00BD40F24033412A4380185941CB0F7C
:102B200005D0C943C043002264425041514162462E
:102B30004D0D28D10D0D07D100281FD0241940417B
:102B40004941013A0D0DF9D0640006D3013000D39C
:102B50000131002C01D140084000013A0BD4941CF3
:102B6000E40A04D112051144DB071944F0BDD9076A
:102B7000204B194300E0D9070020F0BD0029DDD12A
:102B8000002CDBD1F0BD0132C6074008CD07284339
:102B90004908002EE1D0D9E73C2E29DA203E403703
:102BA0001400BC4000D00124F24014431A00BB4082
:102BB0001C43D317ACE7AC46202F08DA20360400BC
:102BC000B4400D00B540F84039412843A5E73C2FFB
:102BD0000CDA203F40360400B44000D00124F84015
:102BE00004430800B1400C43C117EAE71000190084
:102BF000002494E70000F07FF0B50C0D661E36054A
:102C0000891BE60A6405640D02D0651CED0A04D038
:102C1000002001210905803C2403A4461C0D671EE9
:102C20003F05DB1BE70A6405640D02D0651CED0A55
:102C300004D0002201231B05803C24037740644418
:102C400097B484B296B27443070C7E43150C6F435D
:102C500080B26843361802D3012000043F183004C4
:102C6000350C00197D41844688B29AB250430C0C51
:102C700062431F0C7C438EB27E43921902D301261D
:102C80003604A4191604170C3618674101BC81B22A
:102C90009AB25143040C62431B0C5C4380B258430C
:102CA000121802D30120000424181004130C401839
:102CB00063412D185E410020474106BC88B293B2A3
:102CC00058430C0C6343120C544389B251435B18B4
:102CD00002D301210904641819041A0C091862416D
:102CE0006D1856410020474118BCF902720D11437E
:102CF000F0026A0D1043ED020A0D03D16D19404137
:102D00004941013B124E9B1B7600B3420ED26D002F
:102D100007D30130002671416646354301D1400892
:102D200040001B05C918E4072144F0BD0BDA01334C
:102D300006D1013004D101314F0D01D04908F2E72D
:102D4000E1070020F0BD013631050020EBE700006F
:102D5000FF030000F0B51C0D671E3F05DB1BE70AF3
:102D60006405640D02D0661CF60A04D0002201231B
:102D70001B05803C2403D0252D060026F6432E6635
:102D80001E096E66CE0FF619B44649004F0D02D0EB
:102D90007E1CF60A03D000200021403F3F033E1B6B
:102DA000B600B444013F7F05C91B49082E6F0136A8
:102DB00076089C02950D25437543ED137543AD13BD
:102DC00001356D10F603761B0CB4CC02450D2C4377
:102DD000A2B2B3B25A43270C7B43350C6F43A4B263
:102DE0006C431B1902D3012424043F191C041D0C3D
:102DF000A4187D4124196D41009A91B2ACB261438F
:102E0000170C7C432B0C5F4392B25A43A41802D395
:102E100001221204BF182204230C52187B41019C8A
:102E20006C431B19520ED9010A434401A01A81B206
:102E3000B2B2514303145A43360C734387B27743FB
:102E4000D617D21900277E4136049B191704160C99
:102E50007F185E417316ED18F3010026803375412B
:102E6000A90F06D16400690AE8055B0A184309D274
:102E70002FE00422944480337541A90AA8059B0AD7
:102E8000184326D3404149412404009A019B0D0078
:102E90005543641B4343E41A95B286B27543170C3D
:102EA0007E43030C5F4392B25A43B61802D3012209
:102EB0001204BF183204330C52197B4152429C4118
:102EC000002C02D40022013051414008CA071043AF
:102ED000490802B06246D7079210084BD218084B37
:102EE0009A4203D212058918C919F0BD0020002AA0
:102EF00001DC3900F0BD01331905F5E7FD030000E1
:102F0000FE070000002200B5203200F004F808009F
:102F100000BD000000220B150AD410B5944600F045
:102F200031F81414013400DA0021CB17144C204777
:102F30000020002170476244343A0CD40C2A07DA8E
:102F400004009140904052422032D440214310BDB1
:102F5000D843D94310BD203207D40C469440524286
:102F600020321141D040204310BD0800C917203243
:102F700003D452422032104110BD1800190010BD78
:102F8000372F00100A0DCC0F531E1B05C91A52050E
:102F900003D3C943404200D30131520D03D0531C27
:102FA000DB0A07D0121B00206400611C890789120C
:102FB000803A1203014BD21A70470000FF03000051
:102FC00051434343C9188C46110C83B24B4310B490
:102FD000040C614392B280B2504362431C041B0C48
:102FE000001910BC59411304120CC018514161441E
:102FF00070470000132310B510481C78FFF790F8B5
:103000000100012C0AD003DD80220D4800F044F8B5
:103010000C48FFF77DF80C4B186010BD084C54228B
:10302000200000F039F823002100084A5433803191
:1030300004C38B42FCD12262E261E9E753460000FF
:10304000DC8900204C330000D8890020513000106A
:1030500007B5604601880A0A0230DF2AFAD1C9B2F0
:10306000820804D3028840880004104300E000680E
:10307000014A5050039007BDDC890020014804211B
:10308000014B18479002002031210010014B1B68B2
:103090001847000090020020014B5B6818470000B1
:1030A000900200207047C046F8B55746DE464E46AF
:1030B0004546E0B599460A9B07009A460D9B88460F
:1030C00093460B9C9B073CD10C9B9C423ED20C9B95
:1030D0000B941E1B15000C005E442A004B46013564
:1030E00021002020B847B542F7D1A0460B9C002C08
:1030F00020D0454636195346321B013C185D290045
:103100004B46B847002CF6D12B00350098460D9B56
:103110009B070FD55B46EC1A0C9BA3420AD9464687
:1031200098462A004B46310020200134B84701352B
:103130004445F6D32800F0BCBB46B246A946A0469B
:10314000F8BD16001500002CD3D1E0E716001500DD
:10315000002CCED1EEE7C046F0B54546DE465746D8
:103160004E46E0B585B09C4610AB1B78149F934645
:1031700098460F9C129E139DBB074DD4002D43D142
:10318000B44249D201233B4099460E9B013B9A46EB
:10319000302304E0524601341355A64201D9202CB5
:1031A000F8D14B46002B00D185E00E9B013B9946A0
:1031B0003023A54205D82FE04A4601341355AC42CE
:1031C0002AD0202CF8D1FB060DD57B0555D4A6427C
:1031D00064D0A54262D0119B102B51D0119B022BC1
:1031E00057D0202C32D1202301930E9B5A460093B6
:1031F000039763460295FFF757FF05B0F0BCBB4647
:10320000B246A946A046F0BD01233B4099460123A2
:103210003B422AD1B442B8D3FB061CD57B05DAD495
:10322000002CD4D1119B102B5DD0119B022B6DD0A3
:10323000302301240E9A13704346002B10D17B07D4
:103240003FD52B260E9A631C1655CDE7230001347B
:1032500030260E9AD654202CC5D04346002BEED0F3
:103260002D260E9A631C1655BEE74346002B31D01F
:10327000013DB44200D288E797E7119B102BB2D1F1
:10328000BB0639D5202CAED058230E9A13550134E5
:10329000A7E7202CA7D02300013408E0631E012CEF
:1032A000C0D0119A102A33D0119A022AD0D16226A6
:1032B0000E9AD65495E7FB06CDD57B0500D486E75C
:1032C00089E723003E0700D48EE720260E9A0133BB
:1032D000165589E70C233B405A1E9341ED1AB44220
:1032E00000D252E761E7BB060ED478230E9A02247F
:1032F0001370302353709FE7202C00D173E778239D
:103300000E9A135501346CE75823EFE76033EDE76D
:103310000E9AA61E91464E44BA0602D55822327025
:1033200096E77822327093E7F0B557464546DE4679
:103330004E46E0B593B09B461CAB80CB80461B78D5
:10334000894692461E9D0993002F07D11022219B8A
:1033500000249343219A2193520524D4219B612276
:103360009B0639D4D3B202AA1F2694460A3B0024F6
:103370006644089308E03033DBB201343355AF4282
:1033800011D3202C0FD0070029003800FFF70EF8CA
:10339000CBB20929EFD9089A013494466344DBB2D1
:1033A0003355AF42EDD2219B52460693209B4946AE
:1033B00005931F9B40460493099B039502930AAB18
:1033C000009301945B46FFF7C7FE13B0F0BCBB4609
:1033D000B246A946A046F0BD4122C3E7F0B5574624
:1033E000DE464E464546E0B595B09B461E9B1F9D6A
:1033F0009A4620AB1B78229F0B935346239E08903E
:1034000009910A922B4307D11022269B0024934353
:10341000269A2693520530D4269A6123920645D4E3
:1034200004A91F228C46624490460A2252429146C9
:10343000DBB299443B00002457469A460CE04346D1
:103440003032D2B201341A55AE4215D8AE422FD026
:10345000202C11D007000D005246330038002900FF
:10346000FEF7E2FFD2B2092AE9D943464A44D2B272
:1034700001341A55AE42E9D95746269B0A9A06935B
:10348000259B09990593249B089804930B9B03970C
:1034900002930CAB009301945B46FFF75DFE15B001
:1034A000F0BCBB46B246A946A046F0BD4123B7E7F3
:1034B000BA45CDD95746E0E7F0B557464E46DE4609
:1034C0004546E0B593B01C9E1D9F824688469346B4
:1034D000994632003B0030003900FFF730FA0028EF
:1034E00048D1012230003900CC4B5242FFF722FA7A
:1034F00000283FD1012230003900C94B5242FFF76A
:1035000003FA002836D10022002330003900FFF7EB
:10351000FBF9002800D0D3E1069607970698079993
:103520008023209ADB001A400F928022209D1201F6
:1035300015402A000D95209D0C0008901D4230D1A9
:103540000B00034355D1002A00D00DE206331E9331
:103550000225209B209A1D400223134200D005E241
:103560001F9B042B00D207E2043B0D93002304248D
:103570000A93FDE0209B0096019704931F9B039301
:103580001E9B02934B465A464146504600F020FA95
:103590000400200013B0F0BCBB46B246A946A046CA
:1035A000F0BD069A079B1900114324D10D9B002BF7
:1035B000CED000230A931E9B0A9A0024934200DD7A
:1035C000F3E10022002330003900FFF79DF90028C5
:1035D00000D0B3E1209B934A02941A408023DB0081
:1035E000134304931F9B0393069B079C0093019432
:1035F000C8E706231E938C4B60009C46400D604438
:10360000FFF7AEF9894A8A4BFFF73BF9894A8A4BA3
:10361000FFF710F92403894B240B23430A900B91E5
:10362000002208981900864BFFF7FBF8854A864B65
:10363000FFF727F902000B000A980B99FFF7FAF839
:10364000FFF7A6F90A90FFF78BF9804A804B040038
:103650000D00FFF716F900227E4BFFF7EBF8FFF79E
:1036600097F97D4A7D4B29000E902000FFF709F95C
:1036700004000E980D00FFF773F9794A794BFFF7B4
:1036800000F902000B0020002900FFF7CAF804002F
:103690000D0002000B0008940995FFF7F2F80400F2
:1036A0000D000898099902000B00FFF7C3F80022EB
:1036B000109011916C4B20002900FFF7C4F80022F4
:1036C0006A4BFFF7B7F802000B0020002900FFF754
:1036D000BAF80022664BFFF7ADF802000B0020009D
:1036E0002900FFF7B0F8089A099B0D00802104001B
:1036F000C9050020FFF795F802000B002000290003
:10370000FFF798F802000B0010981199FFF79BF84B
:1037100000224A4BFFF78EF8564B0E9C9C466444A1
:1037200023050022FFF7ADF8069A079B04000D0061
:10373000FFF700F9002800D09EE00A9B0894099545
:103740006333C62B00D8A7E00223209D05241D402B
:103750000D9B002B00D0BBE01F9B052B00D90DE17A
:1037600006980799089A099BFFF76DF8069007914C
:103770000022002330003900FFF7C6F8294B209AB9
:10378000134004930D9B03931E9B0293002800D0CB
:10379000F9E0069A079B41460092019350464B463A
:1037A0005A4600F015F902002020209B561C0340C9
:1037B00059424B415B42184041464B464530D04749
:1037C0000523059300230A9A03930A330293D30F28
:1037D00001931300D2179B185340013C04940093AB
:1037E00032004B4641465046FFF79EFD0400002D37
:1037F00000D1CEE65B46C51A1F9BAB4200D8C8E697
:103800005646474622004B4639002020B0471F9BB2
:1038100001350134AB42F5D8BBE6C046FFFFEF7F70
:10382000FFFFEFFFFFF7FFFF01FCFFFFFB799F505A
:103830001344D33FB3C8608B288AC63F0000F03FD3
:103840000000F83F61436F63A787D23F71A37909F6
:103850004F930A400000E03F1655B5BBB16B0240E4
:10386000EF39FAFE422EE63F00002C4000002440D3
:1038700000001840FF0300000A9B0022013B0A934E
:1038800020004E4B2900FEF7DEFF0A9B08900991AD
:103890006333C62B00D957E70223209D04241D4023
:1038A0000D9B002B14D11F9B042B04D9002D00D19C
:1038B0007EE0042402250A9B002B00D050E757E746
:1038C00080231B069C46BC4463460696079325E668
:1038D000089A099B1100194300D16CE606980799D4
:1038E000374A384BFFF71EF8002808D0069807998A
:1038F0000022354BFFF708F8002800D05BE61E9B3E
:10390000002B10D00F9B002B0DD01E9B013B1E9354
:1039100000230D931F9BA342CDD9002D3DD0002342
:1039200002250D93C7E700230D931F9BA342C2D925
:10393000002D32D0002302250D93BCE78020209B70
:10394000224A00061A40802384460294069C079D62
:103950002900DB00134304931F9B6144220003935F
:103960000B00009201930DE605242AE600230424AF
:1039700002250D930A93FBE60423F5E5002D0FD0F5
:1039800002250524ECE68020069E079F00063900EC
:103990008446614432000B00FDE61B1B0D938AE751
:1039A0001F9B0524053B0D93DAE69C1A013C08E6B3
:1039B0001F9B0424043B0D937DE7C0460000244078
:1039C0002D431CEBE2361A3F80842E41FFF7FFFFA8
:1039D000F0B54E46DE4645465746E0B595B08B46B7
:1039E000904699461E9A1F9B0A9019001000209E2F
:1039F000FEF7A5FF002800D0A2E11E981F99012222
:103A0000C64B5242FEF780FF002800D006E11E9808
:103A10001F990122C24B5242FEF78CFF002800D0B2
:103A2000DCE01E981F990022BE4BFEF783FF0028A2
:103A300000D0BDE01E981F990022BB4BFEF764FF2B
:103A4000002800D0B4E01E981F9900220023FEF742
:103A50005BFF002800D0D6E000230B93229B5B0580
:103A600000D406260024302307E0172106AA0134DB
:103A700052181355013E202C01D0092EF5D81E985E
:103A80001F99FEF785FFA94BF2009B181A685B6827
:103A9000050008920993FEF763FF02000B001E98D1
:103AA0001F99FEF7BEFE089A099BFEF7EAFE0690F4
:103AB0000791FEF791FF0700FEF74EFF02000B0093
:103AC00006980799FEF7ADFE0022994B06900791E4
:103AD000FEF730FF002800D1C9E001373800FEF7BB
:103AE0003BFF02000B0008980999FEF713FF00281E
:103AF00001D000270135002E00D197E006AA172338
:103B0000944663449A46069511E053460A213800CC
:103B100001341D19FEF74AFC3031297038000A21A2
:103B2000013EFEF743FC092F00D8BDE00700202C22
:103B3000EBD1069D0CAB20249A4606AB17279C467A
:103B400067440EE028000A21FEF708FC01343031FA
:103B5000E619280031700A21FEF700FC051E00D18D
:103B600092E0202CEED10323229A1340012B18D18E
:103B7000219B002B15D00B9B002B00D1AAE0219B91
:103B8000013B2193202B0CD9302308E0172106AAF2
:103B9000521801341355219A944200D379E0202C15
:103BA000F4D1229B01940393219B029353461FE07F
:103BB000229B42460493219B594603930A981E9BDD
:103BC0001F9C0296009301944B46FFF775FC15B0BD
:103BD000F0BCBB46B246A946A046F0BD229B5B079F
:103BE0000ED40322534B2299019203912199029101
:103BF000009342464B4659460A98FFF755FAE6E7C6
:103C000004224D4BEFE71E9A1F9B00200021FEF778
:103C100008FE01231E901F910B931FE7229B039325
:103C2000219B029304230193444BE1E72800FEF714
:103C300097FE02000B001E981F99FEF7F2FD3C4B09
:103C4000002206000F00FEF75FFE0CAB9A4600282C
:103C500000D072E7002230003900354BFEF76AFED3
:103C6000002800D069E7012301359D4365E7002264
:103C7000069807992E4BFEF747FE002800D03AE73A
:103C8000002F45D1013736E70323229A1340012B39
:103C900063D0202C00D184E70B9B002B27D02D2351
:103CA0005246135501347CE7069D202C00D141E794
:103CB0003023361905E0524601341355202C00D12B
:103CC00038E7B442F7D10CAB9A462E235246013462
:103CD000935532E70C23229A134239D0219B013BA2
:103CE0002193A34200D94FE7202C00D159E7229B12
:103CF0005B0704D52B2352461355013451E7229B11
:103D00001B0700D44DE7202352461355013448E7E2
:103D1000FB0700D4EFE60137EDE6C046FFFFEFFFFB
:103D2000FFFFEF7F65CDCD4165CDCDC1685A001055
:103D30000000E03F2C5400102454001034540010B4
:103D4000229B0393219B0293032301930A4B4FE78A
:103D5000219BA34200D917E723E7219B002B98D092
:103D60000B9B002BB6D0219B013B21939C4200D2A0
:103D70000AE7202C93D114E73054001010B5002826
:103D800000D110BD00F0F4FCFBE7C0460B0010B5FD
:103D9000002802D049681B68984710BDF0B5574607
:103DA000DE464E464546E0B597B01C00209B170006
:103DB0000B93CD4ACD4B83468A461A60002900D129
:103DC000C1E120780025002800D1C3E1C84BB846E6
:103DD0009946C84B5F460D93D346CA4608E02A0071
:103DE000434659466E1CB84735002078002876D0E7
:103DF00001342528F3D104239946023B00269C4632
:103E00002078611C0300203BDBB2102B03D8524604
:103E10009B00D3589F460300303B092B38D9002321
:103E200099462A2800D19EE000230C932E2844D0E6
:103E30000200683AD2B2122A1CD80D9B92009A58FE
:103E4000974601230C001E43DAE763460C001E432D
:103E5000D6E74B460C001E43D2E710230C001E434E
:103E6000CEE708230C001E43CAE780226078520088
:103E7000164301310C00672845D82428AFD9020029
:103E8000253AD2B2422AAAD89B4992008A5897462C
:103E900000231A0000E0013193009B185B001A1800
:103EA00008780C000300303B303A092BF3D900238B
:103EB000914601310C932E28BAD18020303B9C468C
:103EC000C000064360780A0084446346092B00D88A
:103ED00042E12A2800D159E10C000131A8E7DA4675
:103EE0002C00BB464746AF4200D87D1E3B002A004F
:103EF00051460020D847200017B0F0BCBB46B24660
:103F0000A946A046F0BD0200693AD2B20F2A00D9F4
:103F100065E70121794B91409C460B400E93634627
:103F2000194200D028E10A2A27D0072A00D056E7F4
:103F300021220B9B32439946059208220C9B049246
:103F4000039310234A4602930E9B5946019308CAD5
:103F50003800914600932A004346FFF7E5F94B46A7
:103F600005000B9341E70B9B04CB9146002A57DBDE
:103F700060780B930C00013156E70B9B0C9904CB36
:103F800094461093002900D10BE1634618786246ED
:103F90006144002805D15FE253780132002B00D143
:103FA00066E19142F8D16346CB1A0F938022330029
:103FB000D20013400B93164204D00F9A0C9B9A42E6
:103FC00000D90F93B60700D48FE102230E93634606
:103FD0002A005D1B4B4611932300A9465C460C9DAD
:103FE0009B4600E032000B9B002B04D06B1E002D83
:103FF00000D150E11D0043462100561CB8474B46F6
:10400000985D0028EED1119B99465B46A3461C00A3
:104010000E9B002B00D08BE1109B35000B93E4E648
:10402000022216434A465242607891460C000B9396
:104030000131F9E660786C2800D11DE18022520040
:104040001643013116E78022920060781643013151
:1040500010E76078682800D114E18022013116430E
:1040600008E7672800D1A1E0472800D1FAE04528F9
:1040700000D1FAE00B9A0721073213004A468B431E
:10408000190003920C9A049602920CC9380000920F
:1040900001930B912A0043465946FFF70DFA05009C
:1040A000A3E6462800D17EE00B9A072107321300D1
:1040B0004A468B43190003920C9A049602920CC94B
:1040C0003800009201930B912A0043465946FFF7AE
:1040D0007FFC050089E62A004346594625206E1CD0
:1040E000B847350081E6C0469D3D00109805002088
:1040F000C85800100C590010585900104190000089
:104100006B1C0E930B9B04330C93B60700D4C9E0D1
:104110000B9B2A00187859464346B8474B464D44F6
:10412000012B00D85CE1A1465C460E9E320043465E
:10413000013621002020B847B542F7D1A3464C46AE
:104140000C9B0B9351E6D44B20789B46002500280E
:1041500000D03BE60024C6E600218B005B185B0024
:1041600001321918107830390300303B092BF4D98B
:104170000C911400511C5BE66F281BD000D850E155
:104180001021782817D08E43063914E00B9AA078B6
:1041900008CA0234D943C9170B400C930B92611C17
:1041A00046E60139F1E6202216437DE7802212011E
:1041B00016435FE70821720500D4CEE00D22964336
:1041C000320080201300800003409C46024200D051
:1041D00008E10B9B1E1DD00500D52CE10B9B500662
:1041E00000D5F5E0100600D442E118884B46049350
:1041F0000C9B0592039300230291019300902A00E7
:10420000434659463800FFF78FF80B960500ECE55A
:1042100058283CD002216228CDD0720500D4D3E0CA
:10422000112296433200910500D59AE00B9B1E1D8A
:10423000D10500D5E6E00B9B510600D5C1E0110683
:1042400000D404E10021595ECB17C818584080B251
:104250004B4604930C9BC90F03930A2305920293C8
:104260000191CBE78022120116432022164301E779
:104270006346D31A0F9399E6C0229200A0781643A2
:10428000E11CF7E5C022A0781643E11CF2E52022EC
:10429000102116438FE7119B160099465B46A346F3
:1042A0001C00B5E64B46012B00D893E06B1E4B4437
:1042B0004A462E00A9465D46A3461C000E930F9267
:1042C00032004346013629002020B847B442F7D1D6
:1042D0000F9B5C46AB464D4699460B9B594618785A
:1042E0000E9A43464D44B8472AE70F9B994500D89C
:1042F000D4E04B465E190F9BF61A63460F932300DA
:104300005C469B462A004346013521002020B847E1
:10431000AE42F7D10F9B9C465B46A3461C004B4622
:1043200001330F9363461878002800D04FE673E6F8
:1043300035000F9B994500D8ACE04A46A1465C4643
:104340005619F61A2A004346013521002020B847A5
:10435000AE42F7D1A3464C465EE60C2296433200AD
:104360002FE7082307209C460B99073181438C4493
:10437000634603C90B934B4607930C9B0892069325
:104380000A22002304920593CB0F0293CB171293BA
:104390001393129A139B1600464018004840149637
:1043A000159014981599801A994102000B000092FB
:1043B000019359462A0043463800FFF70FF80500DD
:1043C00013E51978080043E71022964332002AE7E4
:1043D00018780BE70B9B2A00187859464346B847D4
:1043E0000E9DADE64B4607930C9B072606930023D4
:1043F0000B9808920730B0430491059302930CC8C0
:104400000B90D4E719684B4604930C9B05920393D9
:104410000A230293CB0F0193CB17C918594000917F
:10442000EDE61022330093431A00692822D171056A
:1044300000D4F8E6F4E64B4604930C9B05920393F4
:10444000634601930B9B02911B680093D7E61968A2
:10445000CB17C8185840FBE680223300D200134027
:104460000F93164209D0B6071DD500230F9360E7BE
:104470001868BBE61E000A219DE6022213003340A5
:104480000B93324200D054E700230F934B46002B8E
:1044900000D02EE72E00BFE5A530001001330F93AA
:1044A00000230E9393E50B92EEE7C04610B50C0087
:1044B00084B00394012402A90290009303481300DE
:1044C0006242FFF76BFC04B010BDC0468D3D00108A
:1044D00010B5094A0300146884B0002C08D00122EA
:1044E00000910648524203A9A047012004B010BD24
:1044F00000F04CF90020F9E7980500207D3D001000
:1045000000BEFDE710B5FFF7FBFFC04670B5FDF735
:104510004DFE074D074EB54209D20024013E761BE1
:10452000B60808CD984723000134B342F9D170BDD5
:104530002C4F0010304F0010030010B50800110080
:104540001B68984710BDC046F8B557464E464546CD
:10455000DE46E0B5437D80460F001600002B48D0B4
:10456000002300249946002A2ADD244B9B464B1E3B
:104570009A4604E07B5D0A2B28D0A64212D0250083
:104580000134002DF6D13B780A2BF6D143461B7D32
:10459000002BF2D14346022158461B68A14698479A
:1045A000A642ECD14E4505DD4B46F11AF8184346BC
:1045B0001B6898477B5D0D3B5A4253414246137539
:1045C000F0BCBB46B246A946A046F8BD53465B5D6B
:1045D0000D2BD2D0A945DDDA4B46E91AF81843462F
:1045E0001B6898474346022158461B68A1469847D6
:1045F000D6E70368110038009847E1E7B85A001081
:10460000F0B5C6460B6806000C0000B5802B06D03E
:104610005A1C2260E418267180BCB846F0BD0F4BCE
:104620001D68002D16D00B1D98460D4F02E02D6918
:10463000002D0FD02B68002BF9D03B68002B01D048
:10464000AB42F4D1280041462268FFF77DFF2D6977
:10465000002DEFD101220023DBE7C04690050020AA
:1046600094050020F0B54546DE464E465746E0B577
:1046700085B091461C0080460D00FDF76DFB0023C0
:10468000254A12184B41002B02DA0122234B5242D9
:10469000234908008A4600F023FC01906B1C03D1DB
:1046A000404600F0CBFB0500002C2FD01D4F1E4BC9
:1046B0001C68002C1FD00A231C4E9B4602E0246974
:1046C000002C18D02368002BF9D03368002B01D0C0
:1046D000A342F4D12A0041462000B8474B46002BA4
:1046E000EDD05A4602AB2000DA71D91D0122B8473D
:1046F0002469002CE6D1019B002B09D1280005B0CC
:10470000F0BCBB46B246A946A046F0BD084FCEE776
:10471000504600F0C5FBF1E740420F00FFFFFF7F6E
:10472000B8020020494500109005002094050020A3
:10473000394500100A4A1368002B05D10CE01A0015
:104740001B691032002B07D08342F8D1002902D117
:1047500018691060196170470029FCD01060FAE7F1
:104760009005002010B500F069F9012010BDC04689
:1047700010B582B06B4604000022D81D0121012330
:104780000470FFF76FFF200002B010BD70B5040089
:1047900000F054FB01230100050001222000FFF777
:1047A00061FF064B1C68002C06D06368002B00D00C
:1047B00098472469002CF8D1280070BD900500208E
:1047C000F0B5CE46474680B5A3B004000D00FDF716
:1047D000C3FA0023264A12184B41002B02DA0122A9
:1047E000244B5242244E300000F07AFB002322007A
:1047F000019307002B00214801A9FFF757FE204B2A
:10480000804699461C68019B002B1AD0002C2DD0A5
:104810001C4D02E02469002C0FD02368002BF9D036
:104820002B68002B01D09C42F4D12000019A02A9F0
:10483000FFF78AFE2469002CEFD14B461C68002349
:104840000193002C06D06368002B00D098472469A0
:10485000002CF8D1002F05D1404623B0C0BCB9468A
:10486000B046F0BD300000F01BFBF5E70194F1E726
:1048700040420F00FFFFFF7FB802002001460010FA
:1048800090050020940500200FB400B583B004A962
:1048900001C90191FFF794FF03B008BC04B01847A9
:1048A000F0B5002915DD0E4B0D271A680D4B0E4C87
:1048B000D3185D426B41451820215B001E5F0478D0
:1048C000A64207D093691942FCD101301460A84276
:1048D000F5D1F0BD93691942FCD11760F2E7C046EB
:1048E000E48A00200080FCBFE08A0020204B70B5E5
:1048F00004000D1E1E682ADD002010211D4B013C06
:104900001A689369194214D1013093691942FCD194
:10491000136823548542F4D1002E08D050239363AA
:10492000516B183B0B4014498C46624413602800BD
:1049300070BD002E08D050239363516B183B0B4081
:104940000D498C46624413600028F1D10CE0002E22
:104950000AD05022074B1B689A63596B183A0A40D9
:1049600005498C4663441A6003204042E0E7C04694
:1049700048050020E48A002034100000064B10B5E2
:104980001B68002B06D00021044A12689163044A78
:104990001068984710BDC04648050020E48A0020F2
:1049A0004C0500200822034B19688B691A42FCD180
:1049B0007047C046E48A0020F8B51A4F1A4B3A688F
:1049C0000500D31858424341184E14331C00336875
:1049D000002D02D0002B0FD0F8BD002BFCD0002101
:1049E00020009563FCF774FC20001149FCF7ACFC37
:1049F000104B35601D60EFE70E4B200019600C492D
:104A00003560FCF777FC01212000FCF761FC5022A7
:104A10003B689A63596B183A0A4007498C466344CD
:104A20001A60D9E7E48A00200080FCBF4805002016
:104A30007D4900104C050020341000000D4B10B5CE
:104A40001B780D4B0D4C1B780D4B02211B780D4B29
:104A500000202360FCF772FB02210120FCF76EFBB3
:104A6000E12120684902FDF71FFA01210648FFF7FE
:104A700061FE10BDFC5A0010F85A0010E48A0020B4
:104A8000F45A001000400340A0020020124B30B541
:104A9000C318124C1B0D9B001D59012420238C4070
:104AA000591A013C002A09DB10008A4203DC9440B9
:104AB000254200D130BD01204042FBE7002902DA47
:104AC00007E0013905D323008B401D42F9D10800CE
:104AD000F0E709204042EDE70000E0AF400500208C
:104AE000F0B5CE464746052380B58C790D79CB5677
:104AF000002C40D1002B01DB9A4239D11F4BC61844
:104B00001F4B360D9946B3009C464B4664461B59D5
:104B100098460123AB40013B9340444646461C4027
:104B20001E4222D1002D17D080270E68BF016300DE
:104B3000F55ABD4200D2AD18131912339B001D5017
:104B40000B7901349C42F2D3012199400B00013BC7
:104B5000414693401943884640464B46614658506B
:104B60001000C0BCB946B046F0BD09204042F8E78D
:104B70000B204042F5E714204042F2E70000E0AF8E
:104B800040050020F8B50D000600FCF73DFB0522AE
:104B90000700AA5630002979FFF778FF041E05DBCD
:104BA000020029003000FFF79BFF04003800FCF7EB
:104BB00037FB2000F8BDC046F0B54E464546DE4600
:104BC0005746E0B583B089460CA984460D781F2A64
:104BD00045D84946490088464944C9004618370027
:104BE0003400DC373868CC348346206831000190CB
:104BF0001C4880248246A40251440C6069424D4105
:104C00001E216D428D4318498A465544052B0CD907
:104C1000A0201F214005D836540104430532053B2E
:104C20003C600A403560052BF6D852019B061343C1
:104C300042464A44D20062441000DC321360030052
:104C4000D8331D605B461360019BCC3003600020AD
:104C500003B0F0BCBB46B246A946A046F0BD052055
:104C60004042F5E7CC3000009FE00000F0B50125A0
:104C70008D400468AC430460002B2ED04D006C18AE
:104C8000E400041926001F68C83637609F680436A0
:104C900077605F68DC343760DB6823606B18184D21
:104CA000DB00AC468025C41864442D0625602560D1
:104CB000144C0D1D8C40846001242600AE408025DC
:104CC00008318C401F21AD014519C0180A40D83069
:104CD0002E602C6002600020F0BD4D006C18E400D6
:104CE000041926008027C8367F023760C0273F039B
:104CF000B760F82704367F02DC3437602360CDE7E5
:104D0000D010000001010101F0B557464E4645465E
:104D1000DE468146E0B5062083B00D00FDF798F928
:104D20004B465A6802231A400192042280214A44C9
:104D30009246224AEF0D4A446E02136080463200CA
:104D40003B000224490006E0904506D30234921944
:104D50007B418C4201D0002BF6D0802627023F1BDE
:104D6000760002E03F1B012E24D039004046B346B6
:104D7000013EFDF71BFBA842F4D9594661433602B8
:104D80004B461C611A68FF2372401B021A408023A5
:104D90005B014B441A608023019A9B0153444046B7
:104DA0001A60FDF703FB03B0F0BCBB46B246A94650
:104DB000A046F0BD21000026E2E7C0460430000016
:104DC000174B70B5C218531E9A4180235B029C4654
:104DD0001204144B62441A60134B040013481A6007
:104DE000150003689D43FBD12000FFF78DFF0223D0
:104DF0000F49626861180B60072125681A404D4011
:104E0000C831294080256D0165192960094961185B
:104E10000A60094A94460322644422600B6070BD14
:104E20000040FCBF00E0004000F0004008C000402F
:104E300004300000042000002420000010B5830787
:104E40000AD00300032102E001330B4205D01A7897
:104E5000002AF9D1181A10BD030019680C4A0D4C2C
:104E60008A188A4322420FD15968094A04338A18A2
:104E70008A43224208D15968054A04338A188A4372
:104E80002242F1D000E001331A78002AFBD1E1E799
:104E9000FFFEFEFE80808080F8B5C0460000000066
:104EA00001B40248844601BC604700BF8D01002068
:104EB00001B40248844601BC604700BF01020020E3
:104EC00001B40248844601BC604700BF01020020D3
:104ED00001B40248844601BC604700BFB501002010
:104EE00001B40248844601BC604700BF3101002084
:104EF000D5210010012200104D2300107D3000103C
:104F0000F1290010F52F0010752200101D2200104D
:104F10003D22001051220010D1150010592200101E
:104F2000411900109D210010AD120010B1020010B7
:104F30000A0A4D433638303020456D756C61746F08
:104F400072205374617274696E672E2E2E000000F9
:104F500056657273696F6E20312E3000546172672E
:104F600065743A205250323335300A00496E697404
:104F700069616C697A696E672055534220434443E6
:104F80002E2E2E00496E697469616C697A696E67AC
:104F9000206D656D6F7279207375627379737465B6
:104FA0006D2E2E2E00000000496E697469616C69D7
:104FB0007A696E672062757320696E7465726661C6
:104FC00063652E2E2E000000496E697469616C695C
:104FD0007A696E67204520636C6F636B2E2E2E00FE
:104FE000496E697469616C697A696E67206465628B
:104FF0007567205350492E2E2E000000496E6974AB
:1050000069616C697A696E672043505520737461D9
:1050100074652E2E2E000000496E697469616C69FA
:105020007A696E6720696E74657272757074206833
:10503000616E646C696E672E2E2E00000A4D433639
:1050400038303020456D756C61746F722052656127
:105050006479000057616974696E6720666F722019
:105060004550524F4D206C6F616420766961205528
:1050700053422E2E2E0A000043505520696E69744B
:1050800069616C697A65643A2050433D2425303467
:10509000582053503D2425303458204343523D245A
:1050A000253032580A0000004D656D6F7279206915
:1050B0006E697469616C697A65643A20524F4D3D3E
:1050C00024253034582D24253034582052414D3D6C
:1050D00024253034582D24253034580A000000008F
:1050E00052617370626572727920506920506963F1
:1050F0006F20320042757320696E74657266616359
:105100006520696E697469616C697A656420666F8F
:10511000722025730A0000002020446174613A2047
:10512000204750494F2025642D25640A00000000C7
:105130002020416464723A20204750494F20256462
:105140002D25642028256420626974732C20256431
:105150004B42207370616365290A00002020564D80
:10516000413A2020204750494F2025640A00000082
:105170002020522F573A2020204750494F202564A5
:105180000A00000020202F4952513A202047504960
:105190004F2025640A00000020202F4E4D493A2060
:1051A000204750494F2025640A00000020202F523C
:1051B000455345543A204750494F2025640A000082
:1051C0004520636C6F636B20696E697469616C69FB
:1051D0007A6564206F6E204750494F2025640A008D
:1051E000546172676574206672657175656E637966
:1051F0003A20302E383934383836204D487A202835
:10520000706572696F643A20312E313137C2B573DF
:10521000290000004520636C6F636B20737461721A
:10522000746564002A2A2A20554E494D504C454D3C
:10523000454E544544204F50434F44453A20242581
:105240003032582061742050433D2425303458209A
:105250002A2A2A0A00000000496E7465727275706D
:10526000742068616E646C696E6720696E69746928
:10527000616C697A6564000020204952512076658E
:1052800063746F723A2024253034580A00000000FD
:1052900020204E4D4920766563746F723A20242594
:1052A0003034580A00000000202052535420766504
:1052B00063746F723A2024253034580A00000000CD
:1052C0000A2A2A2A205245534554202A2A2A000015
:1052D000526573657420766563746F723A20242575
:1052E0003034580A000000002A2A2A204E4D492056
:1052F00061742050433D2425303458202A2A2A0A3C
:10530000000000004E4D4920766563746F723A20AC
:1053100024253034580A00002A2A2A2049525120D4
:1053200061742050433D2425303458202A2A2A0A0B
:105330000000000049525120766563746F723A2074
:1053400024253034580A000055534220434443205A
:10535000696E7465726661636520696E69746961FE
:105360006C697A656400000044656275672053507B
:105370004920696E697469616C697A6564206F6E31
:10538000204750494F202564202853434B292C2087
:10539000256420284D4F5349290A00000A2A2A2A49
:1053A0002050414E4943202A2A2A0A000A000000C0
:1053B000486172647761726520616C61726D20254D
:1053C0006420616C726561647920636C61696D65EC
:1053D0006400000048617264206173736572740038
:1053E00052656C6561736500626F6F74325F77320E
:1053F0003571303830000000322E312E310000007F
:105400007069636F000000006D63363830305F658F
:105410006D756C61746F72004465632020332032B7
:1054200030323500666E692B00000000666E690040
:105430006E616E00666E692D000000005541525489
:1054400020737464696E0000554152542073746473
:105450006F7574005541525420737464696E202F27
:10546000207374646F7574007054001002FF0000A4
:1054700001FF00FF260A0010240A0010260A00106F
:10548000260A0010260A0010260A0010260A00101C
:10549000260A0010260A0010260A0010260A00100C
:1054A000260A0010260A0010260A0010260A0010FC
:1054B000260A0010260A0010260A0010260A0010EC
:1054C000260A0010260A0010260A0010DA0E001024
:1054D000D00E0010260A0010260A0010260A00101E
:1054E000260A0010260A0010260A0010260A0010BC
:1054F000260A0010A20B0010260A0010260A00102F
:10550000260A0010880B00106E0B0010540B0010C0
:10551000320B0010260A0010260A0010260A00107E
:10552000260A0010260A0010260A0010260A00107B
:10553000260A00102A0B0010260A0010220B001069
:105540001A0B0010260A0010120B00100A0B001094
:105550005A0A0010260A0010520A0010260A0010EB
:105560003A0A0010260A0010260A0010E60A001067
:10557000260A0010260A0010260A0010260A00102B
:10558000260A0010260A0010260A0010260A00101B
:10559000260A0010260A0010260A0010C00E00106D
:1055A000260A0010B00E0010260A0010260A00106D
:1055B000260A0010260A0010260A0010260A0010EB
:1055C000260A0010260A0010260A0010260A0010DB
:1055D000260A0010260A0010260A00100A0C0010E5
:1055E000260A0010EC0B0010260A0010260A0010F4
:1055F000260A0010260A0010260A0010260A0010AB
:10560000260A0010260A0010260A0010260A00109A
:10561000260A0010260A0010260A0010260A00108A
:10562000260A0010260A0010260A0010840C00101A
:10563000260A0010260A0010260A0010260A00106A
:10564000260A0010260A0010260A0010260A00105A
:10565000260A0010260A0010260A0010260A00104A
:10566000260A0010260A0010260A0010660C0010F8
:10567000260A0010380C0010260A0010260A001016
:10568000260A0010280C0010260A00106C0D0010CD
:10569000260A0010260A0010260A00105A0D0010D3
:1056A000100D0010260A0010E80C0010260A001049
:1056B000260A0010260A0010260A0010260A0010EA
:1056C000260A0010260A0010260A0010DC0C001022
:1056D000CE0C0010260A0010260A0010260A001020
:1056E000260A0010260A0010260A0010260A0010BA
:1056F000260A0010260A0010260A0010260A0010AA
:10570000260A0010260A0010260A0010BC0C001001
:10571000960C0010260A0010260A0010260A001017
:10572000260A0010260A0010D20B0010260A0010CC
:10573000260A0010260A0010260A0010260A001069
:10574000260A0010260A0010260A0010F60900108A
:105750000C0E0010260A0010260A0010260A00105F
:10576000260A0010260A0010E60D0010260A001076
:10577000260A0010260A0010260A0010260A001029
:10578000260A0010260A0010260A0010DE0D00105E
:10579000260A0010260A0010260A0010260A001009
:1057A000260A0010260A0010260A0010B20D00106A
:1057B000260A0010260A0010260A0010260A0010E9
:1057C000260A0010260A0010260A0010940D001068
:1057D000740D0010260A0010260A0010260A001078
:1057E000260A0010260A0010260A0010C40B00101A
:1057F000B60B0010260A0010260A0010260A001018
:10580000260A0010260A0010260A0010600E00105A
:105810004C0E0010260A0010260A0010260A00105E
:10582000260A0010260A0010260A00103C0E00105E
:105830002A0E0010260A0010260A0010260A001060
:10584000260A0010260A0010260A0010920E0010E8
:10585000720E0010260A0010260A0010260A0010F8
:10586000260A0010260A0010260A0010A40A0010BA
:10587000620A001006005250D3F07542E053001047
:1058800006005250E182887FE85300100600525013
:10589000ABB36053F853001006005250BBFF3CB648
:1058A0000054001006005250861C030208540010D9
:1058B000060052505422A29D185400100500525068
:1058C000DE65F468005D0010623E0010163E0010B8
:1058D000163E00105A3E0010163E0010163E0010F4
:1058E000163E0010163E0010163E0010163E001028
:1058F000163E0010523E0010163E00104A3E0010A8
:10590000163E0010163E0010423E0010524000109D
:10591000743E001046400010743E001034400010E9
:10592000743E0010743E0010743E0010743E00106F
:10593000743E0010743E0010743E00106A3E001069
:10594000743E0010743E0010743E0010743E00104F
:10595000743E00106A3E0010D6400010DE3D00107C
:10596000DE3D0010DE3D0010DE3D0010DE3D00108B
:10597000DE3D0010DE3D0010DE3D0010DE3D00107B
:10598000DE3D0010DE3D0010DE3D0010DE3D00106B
:10599000DE3D0010DE3D0010DE3D0010DE3D00105B
:1059A000DE3D0010DE3D0010DE3D0010DE3D00104B
:1059B000DE3D0010DE3D0010DE3D0010DE3D00103B
:1059C000DE3D0010DE3D0010DE3D0010DE3D00102B
:1059D000DE3D0010DE3D001062400010A2400010CD
:1059E00062400010DE3D0010DE3D0010DE3D001084
:1059F000DE3D0010DE3D0010DE3D0010DE3D0010FB
:105A0000DE3D0010DE3D0010DE3D0010DE3D0010EA
:105A1000DE3D0010DE3D0010DE3D0010DE3D0010DA
:105A2000DE3D001010420010DE3D0010DE3D001093
:105A3000DE3D0010DE3D0010DE3D0010DE3D0010BA
:105A4000DE3D0010DE3D0010DE3D00101042001073
:105A5000004100101042001062400010A2400010EF
:105A60006240001000000000000000000000F03F55
:105A70000000000000002440000000000000594029
:105A80000000000000408F40000000000088C3407C
:105A900000000000006AF8400000000080842E41F1
:105AA00000000000D01263410000000084D797413D
:105AB0000000000065CDCD410D0A000006005250E7
:105AC00053B4F4A1545400100800525012000000C6
:085AD000080052509210000082
